:020000040800F2
:1000000000000320F53F0008C1320008CD3200088F
:10001000D5320008DD320008E5320008000000009B
:10002000000000000000000000000000ED320008A9
:1000300001330008000000000D33000819330008E8
:10004000414000084140000841400008414000088C
:10005000414000084140000841400008414000087C
:10006000414000084140000841400008414000086C
:10007000414000084140000841400008414000085C
:10008000414000084140000841400008414000084C
:10009000414000084140000841400008414000083C
:1000A000414000084140000841400008414000082C
:1000B000414000084140000841400008414000081C
:1000C000414000084140000841400008414000080C
:1000D00041400008414000084140000841400008FC
:1000E00041400008414000084140000841400008EC
:1000F00041400008414000084140000841400008DC
:1001000041400008414000084140000841400008CB
:1001100041400008414000084140000841400008BB
:1001200041400008414000084140000841400008AB
:10013000414000084140000841400008414000089B
:10014000414000084140000841400008414000088B
:10015000414000084140000841400008414000087B
:10016000414000084140000841400008414000086B
:1001700041400008414000084140000800000000E4
:10018000414000084140000841400008414000084B
:10019000414000084140000841400008414000083B
:0C01A000414000084140000841400008B8
:1001AC0010B5054C237833B9044B13B10448AFF3A5
:1001BC0000800123237010BD4004002000000000CB
:1001CC0044400008084B10B51BB108480849AFF370
:1001DC0000800848036803B910BD074B002BFBD007
:1001EC00BDE81040184700BF000000004440000864
:1001FC0044040020400400200000000080B485B0BE
:10020C0000AF78600023FB607B681B68FB60FB68B9
:10021C0018461437BD465DF8047B704780B483B034
:10022C0000AF786039607B683A681A600C37BD465D
:10023C005DF8047B704700BF80B594B000AF234AD3
:10024C00224B1B6C43F080531364204B1B6C03F04C
:10025C008053BB60BB681E4A1D4B1B6843F4404374
:10026C0013601B4B1B6803F440437B607B680123CA
:10027C00FB6001233B6102237B624FF48003BB6272
:10028C000823FB624FF4B4733B6302237B630723A5
:10029C00BB6307F10C03184601F0E4FA00F028FEEA
:1002AC000F23FB6302233B6400237B644FF4A053B6
:1002BC00BB644FF48053FB6407F13C0318460521E3
:1002CC0001F02CFD5037BD4680BD00BF0038024008
:1002DC000070004080B500AF02F036FE02F0CEFA9E
:1002EC00FFF7AAFF80BD00BF80B584B000AF786077
:1002FC0039600123FB730023BB60344B1B7E012B45
:10030C0001D102235EE0314B01221A764CF25030BF
:10031C0003F0E0FC0346FB73FB7B002B4ED13B68E8
:10032C004FF0FF321A607B681B68012B17D17B687A
:10033C001B69DAB27B685B681046194600F0D0F98D
:10034C004CF2503003F0C6FC0346FB73204A204BA2
:10035C001B6923F4004323F0040313612EE07B6834
:10036C009B68BB6022E07B681B69DBB2B8681946EE
:10037C0000F0F4F94CF2503003F0ACFC0346FB7384
:10038C00134A134B1B6923F002031361104A104BE1
:10039C001B6923F0F8031361FB7B002B03D03B6834
:1003AC00BA681A600AE0BB680133BB607B68DA6824
:1003BC007B689B681A44BB689A42D4D8034B0022D2
:1003CC001A76FB7B18461037BD4680BD7C04002096
:1003DC00003C024080B584B000AF78600023FB7312
:1003EC00254B1B7E012B01D1022340E0224B012225
:1003FC001A76224A214B1B6943F0807313611F4A02
:10040C001E4B1B6943F0007313611C4BF322DA6023
:10041C007B681B68012B10D1174B02221A707B686A
:10042C005B68154A13617B681B69DAB27B685B6891
:10043C001046194600F054F918E00F4B01221A70BF
:10044C007B68DB680C4A53607B689B680A4AD36004
:10045C007B681B69DAB2084B1A727B689A687B68F6
:10046C001B69DBB21046194600F078F9FB7B184685
:10047C001037BD4680BD00BF7C040020003C02400C
:10048C0080B584B000AF78600123FB73334B1B7EC7
:10049C00012B01D102235DE0304B01221A767B68DF
:1004AC001B6803F00103002B18D07B685B68012BE1
:1004BC000AD17B689A687B68DB681046194600F0A5
:1004CC00A9F90346FB7309E07B689A687B68DB68D3
:1004DC001046194600F00CFA0346FB737B681B6848
:1004EC0003F00203002B07D07B681B69DBB21846B4
:1004FC0000F022FB0346FB737B681B6803F00403CC
:10050C00002B15D07B681B7E03F02003D9B27B68CF
:10051C001B7E03F04003DAB27B681B7E23F07F0363
:10052C00DBB2084611461A4600F020FB0346FB736B
:10053C007B681B6803F00803002B07D07B685B69A2
:10054C00DBB2184600F042FB0346FB73034B002260
:10055C001A76FB7B18461037BD4680BD7C04002004
:10056C0080B582B000AF78607B680F221A6000F013
:10057C005BFB03461A467B689A6000F061FB0346FE
:10058C001A467B681A6100F03FFB03461A467B68EB
:10059C001A7600F06BFB03461A467B685A610837E3
:1005AC00BD4680BD80B584B000AF78600123FB737D
:1005BC007B681B6803F00103002B22D07B685B680F
:1005CC00012B0FD17B689B8919467B68DB891A4606
:1005DC007B689B68084611461A4600F017FA0346DA
:1005EC00FB730EE07B689B8919467B68DB891A4696
:1005FC007B689B68084611461A4600F04FFA034682
:10060C00FB737B681B6803F00203002B06D07B682E
:10061C001B7C184600F0D2F90346FB73FB7B184693
:10062C001037BD4680BD00BF80B483B000AF78608A
:10063C00094B1B889AB27B689A81084B1B889AB22B
:10064C007B68DA81064B1B78DAB27B681A740C373C
:10065C00BD465DF8047B7047163C02401A3C0240D4
:10066C00143C024080B483B000AFFF23FB71094BF4
:10067C001B78DBB203F07F03FB71064AFB7963F056
:10068C007F03DBB21370002318460C37BD465DF8B0
:10069C00047B7047173C024080B483B000AFFF234B
:1006AC00FB71084B1B78DBB203F07F03FB71054A2F
:1006BC00FB791370002318460C37BD465DF8047B9C
:1006CC00704700BF173C024080B400AF034B1B883F
:1006DC009BB21846BD465DF8047B70471A3C02403D
:1006EC0080B485B000AF03463960FB710023FB601A
:1006FC00194A194B1B6923F4407313611649164BA5
:10070C001A69FB6813430B613B68032B08D1124A2F
:10071C00114B1B6943F4004343F0040313610FE0D6
:10072C003B68012B06D10C4A0B4B1B6943F00403AD
:10073C00136105E0084A084B1B6943F4004313613D
:10074C00054A054B1B6943F4803313611437BD46CE
:10075C005DF8047B704700BF003C024080B489B058
:10076C0000AF78600B46FB700023FB61FB78002B1D
:10077C0002D10023FB6110E0FB78012B03D14FF475
:10078C008073FB6109E0FB78022B03D14FF40073FB
:10079C00FB6102E04FF44073FB617B680B2B02D9C9
:1007AC007B6804337B601A4A194B1B6923F4407332
:1007BC0013611749164B1A69FB6913430B61144AF1
:1007CC00134B1B6923F0F8031361F823BB61BB695E
:1007DC0093FAA3F37B617B693B613B69B3FA83F3C7
:1007EC00FB60FB68DBB21A467B68934043F0020364
:1007FC000749074A126913430B61054A044B1B69ED
:10080C0043F4803313612437BD465DF8047B704795
:10081C00003C024080B584B000AF786039600023A2
:10082C00FB734CF2503003F055FA0346FB73FB7B21
:10083C00002B52D17B682B4A934205D13B68012B8C
:10084C0006D03B68032B03D07B68B3F5805F1CD2CA
:10085C007B68244A93420CD12349234B1B889AB2C0
:10086C007B681B0B9BB2DB439BB213409BB20B8090
:10087C0017E01D491C4B1B889AB27B689BB2DB436B
:10088C009BB213409BB20B800BE01849174B1B8893
:10089C009AB27B681B0B9BB2DB439BB213409BB29F
:1008AC000B807B680F4A934217D13B68032B14D102
:1008BC004CF2503003F00EFA0346FB73FB7B002B1B
:1008CC000BD10A49094B1B889AB27B681B0B9BB254
:1008DC00DB439BB213409BB20B80FB7B184610375B
:1008EC00BD4680BD00F0FF00163C02401A3C0240A1
:1008FC0080B584B000AF786039600023FB734CF294
:10090C00503003F0E7F90346FB73FB7B002B4AD115
:10091C007B68274A934205D13B68012B06D03B6884
:10092C00032B03D07B68B3F5805F18D27B68204A19
:10093C0093420AD11F491F4B1B889AB27B681B0B31
:10094C009BB213439BB20B8013E01A49194B1B88C3
:10095C009AB27B689BB213439BB20B8009E0164999
:10096C00154B1B889AB27B681B0B9BB213439BB233
:10097C000B807B680E4A934215D13B68032B12D136
:10098C004CF2503003F0A6F90346FB73FB7B002BB3
:10099C0009D10949084B1B889AB27B681B0B9BB287
:1009AC0013439BB20B80FB7B18461037BD4680BDB2
:1009BC0000F0FF00163C02401A3C024080B584B0A7
:1009CC0000AF0346FB710023FB734CF2503003F075
:1009DC0081F90346FB73FB7B002B0FD10A4A0A4BB0
:1009EC001B78DBB223F01003DBB213700649064B05
:1009FC001B78DAB2FB791343DBB20B70FB7B184626
:100A0C001037BD4680BD00BF143C024080B586B097
:100A1C0000AFF860B9607A600023FB754CF250307F
:100A2C0003F058F90346FB75FB7D002B2DD17B6839
:100A3C00012B02D07B68032B09D11649154B1B885F
:100A4C009AB2FB689BB213439BB20B8008E012492D
:100A5C00114B1B889AB2BB689BB213439BB20B80A1
:100A6C007B68032B11D14CF2503003F033F9034661
:100A7C00FB75FB7D002B08D10749074B1B889AB2ED
:100A8C00BB689BB213439BB20B80FB7D1846183797
:100A9C00BD4680BD163C02401A3C024080B586B073
:100AAC0000AFF860B9607A600023FB754CF25030EF
:100ABC0003F010F90346FB75FB7D002B33D17B68EB
:100ACC00012B02D07B68032B0BD11949184B1B88C7
:100ADC009AB2FB689BB2DB439BB213409BB20B8078
:100AEC000AE01449134B1B889AB2BB689BB2DB43D8
:100AFC009BB213409BB20B807B68032B13D14CF23F
:100B0C00503003F0E7F80346FB75FB7D002B0AD150
:100B1C000849084B1B889AB2BB689BB2DB439BB25B
:100B2C0013409BB20B80FB7D18461837BD4680BD29
:100B3C00163C02401A3C024080B584B000AF03461C
:100B4C00FB710023FB734CF2503003F0C3F80346E7
:100B5C00FB73FB7B002B02D1034AFB791370FB7BED
:100B6C0018461037BD4680BD153C024080B584B098
:100B7C0000AF0346FB710B46BB7113467B71FF2321
:100B8C00FB730023BB734CF2503003F0A3F8034605
:100B9C00BB73BB7B002B11D10B4B1B78DBB203F06F
:100BAC001F03FB730849BA79FB7B1343DAB27B79D9
:100BBC001343DAB2FB791343DBB20B70BB7B1846E1
:100BCC001037BD4680BD00BF143C024080B483B0DA
:100BDC0000AF0346FB710B4A0A4B1B78DBB223F0C8
:100BEC000C03DBB213700749064B1B78DAB2FB79A6
:100BFC001343DBB20B70002318460C37BD465DF86F
:100C0C00047B7047143C024080B400AF054B5B6919
:100C1C00DBB223F01F03DBB21846BD465DF8047B44
:100C2C00704700BF003C024080B400AF034B1B88F0
:100C3C009BB21846BD465DF8047B7047163C0240DB
:100C4C0080B483B000AF0023FB71074B1B78DBB281
:100C5C00AA2B01D00123FB71FB7918460C37BD463A
:100C6C005DF8047B704700BF153C024080B400AFB8
:100C7C00054B1B78DBB203F00C03DBB21846BD4608
:100C8C005DF8047B704700BF143C024080B586B011
:100C9C0000AF00237B614FF400733B613B6993FA17
:100CAC00A3F3FB60FB68BB60BB68B3FA83F37B60A8
:100CBC007B68DBB29B001A460E4B13441A46012389
:100CCC00136002F0C1F9786109E002F0BDF9024647
:100CDC007B69D31AB3F57A7F01D9032306E0064B5F
:100CEC005B6803F00803002BEFD00023184618377D
:100CFC00BD4680BD80000E420070004080B586B0BD
:100D0C0000AF00237B614FF400733B613B6993FAA6
:100D1C00A3F3FB60FB68BB60BB68B3FA83F37B6037
:100D2C007B68DBB29B001A460E4B13441A46002319
:100D3C00136002F089F9786109E002F085F9024646
:100D4C007B69D31AB3F57A7F01D9032306E0064BEE
:100D5C005B6803F00803002BEFD10023184618370B
:100D6C00BD4680BD80000E420070004080B485B04E
:100D7C0000AF4FF40073FB60FB6893FAA3F3BB6006
:100D8C00BB687B607B68B3FA83F33B603B68DBB288
:100D9C009B0003F1844303F560231A46012313607F
:100DAC001437BD465DF8047B704700BF80B485B036
:100DBC0000AF4FF40073FB60FB6893FAA3F3BB60C6
:100DCC00BB687B607B68B3FA83F33B603B68DBB248
:100DDC009B0003F1844303F560231A460023136040
:100DEC001437BD465DF8047B704700BF80B400AF7C
:100DFC00044B1B6803F440431846BD465DF8047B66
:100E0C00704700BF0070004080B586B000AF7860BE
:100E1C0000237B61334A334B1B6C43F080531364C8
:100E2C00304B1B6C03F080533B613B692D4B9B6833
:100E3C0003F00C03082B4ED02B4B00221A6002F04F
:100E4C0003F9786108E002F0FFF802467B69D31AD7
:100E5C00642B01D9032341E0224B1B6803F0007380
:100E6C00002BF0D12149214B1B6823F440427B68B5
:100E7C0013430B601D4B1B6803F44043FB60FB6882
:100E8C00194B01221A6002F0DFF8786108E002F0D9
:100E9C00DBF802467B69D31A642B01D903231DE0CE
:100EAC00104B1B6803F00073002BF0D002F0CCF851
:100EBC00786109E002F0C8F802467B69D31AB3F5F1
:100ECC007A7F01D9032309E0084B5B6803F4804364
:100EDC00002BEFD001E0012300E000231846183767
:100EEC00BD4680BD003802406000474200700040A3
:100EFC0080B58AB000AF00237B62334A324B1B6C47
:100F0C0043F080531364304B1B6C03F080533B60F5
:100F1C003B684FF480333B623B6A93FAA3F3FB616B
:100F2C00FB69BB61BB69B3FA83F37B617B69DBB2A1
:100F3C009B0003F1844303F560231A4601231360DD
:100F4C0002F082F8786209E002F07EF802467B6AD1
:100F5C00D31AB3F57A7F01D9032331E01B4B5B68BD
:100F6C0003F48033002BEFD04FF400333B613B692B
:100F7C0093FAA3F3FB60FB68BB60BB68B3FA83F323
:100F8C007B607B68DBB29B0003F1844303F5602339
:100F9C001A460123136002F057F8786209E002F058
:100FAC0053F802467B6AD31AB3F57A7F01D903232F
:100FBC0006E0064B5B6803F40033002BEFD00023F4
:100FCC0018462837BD4680BD0038024000700040EE
:100FDC0080B58AB000AF00237B62334A324B1B6C66
:100FEC0043F080531364304B1B6C03F080533B6015
:100FFC003B684FF400333B623B6A93FAA3F3FB610B
:10100C00FB69BB61BB69B3FA83F37B617B69DBB2C0
:10101C009B0003F1844303F560231A4600231360FD
:10102C0002F012F8786209E002F00EF802467B6AD0
:10103C00D31AB3F57A7F01D9032331E01B4B5B68DC
:10104C0003F40033002BEFD14FF480333B613B6949
:10105C0093FAA3F3FB60FB68BB60BB68B3FA83F342
:10106C007B607B68DBB29B0003F1844303F5602358
:10107C001A460023136001F0E7FF786209E001F0E3
:10108C00E3FF02467B6AD31AB3F57A7F01D90323B7
:10109C0006E0064B5B6803F48033002BEFD1002392
:1010AC0018462837BD4680BD00380240007000400D
:1010BC0080B586B000AF78600B46FB7000237B6177
:1010CC0000233B61294A294B1B6C43F0805313646A
:1010DC00264B1B6C03F08053FB60FB68244A244BAB
:1010EC005B6843F440235360214A214B1B6843F453
:1010FC004023136001F0A8FF386109E001F0A4FF60
:10110C0002463B69D31AB3F57A7F01D9032329E050
:10111C00174B5B6803F44023B3F5402FEED0144B10
:10112C001B687B617B6923F4406323F003037B61C1
:10113C007A697B6813437B610D4A7B6913600D4AA6
:10114C000C4B1B6943F004031361FB78012B01D199
:10115C0030BF00E020BF074A064B1B6923F0040395
:10116C001361002318461837BD4680BD0038024075
:10117C000070004000ED00E080B489B000AF7860F2
:10118C00396000237B6100233B610023BB6100239A
:10119C00FB6171E1FB69012202FA03F37B613B689D
:1011AC001A687B6913403B613A697B699A4240F04B
:1011BC0060813B685B68022B03D03B685B68122B39
:1011CC0022D1FB69DA087B68083253F82230BB6104
:1011DC00FB6903F007039B001A460F239340DB4384
:1011EC00BA691340BB613B681B69FA6902F00702DC
:1011FC0092009340BA691343BB61FB69DA087B68C0
:10120C000832B96943F822107B681B68BB61FB6923
:10121C005B001A4603239340DB43BA691340BB615E
:10122C003B685B6803F00303FA6952009340BA69A8
:10123C001343BB617B68BA691A603B685B68012B1E
:10124C000BD03B685B68022B07D03B685B68112BAB
:10125C0003D03B685B68122B2FD17B689B68BB610A
:10126C00FB695B001A4603239340DB43BA691340C6
:10127C00BB613B68DB68FA6952009340BA6913435F
:10128C00BB617B68BA699A607B685B68BB61FB6910
:10129C00012202FA03F3DB43BA691340BB613B68DA
:1012AC005B6803F010031A09FB6902FA03F3BA69CD
:1012BC001343BB617B68BA695A607B68DB68BB61AE
:1012CC00FB695B001A4603239340DB43BA69134066
:1012DC00BB613B689B68FA6952009340BA6913433F
:1012EC00BB617B68BA69DA603B685B6803F080536A
:1012FC00002B00F0BE80654A644B5B6C43F480436A
:10130C005364624B5B6C03F48043FB60FB68604A84
:10131C00FB699B08023352F82330BB61FB6903F075
:10132C0003039B001A460F239340DB43BA69134017
:10133C00BB617B68574A934237D07B68564A9342CD
:10134C0031D07B68554A93422BD07B68544A9342E8
:10135C0025D07B68534A93421FD07B68524A9342F4
:10136C0019D07B68514A934213D07B68504A934200
:10137C000DD07B684F4A934207D07B684E4A93420C
:10138C0001D1092312E00A2310E008230EE0072301
:10139C000CE006230AE0052308E0042306E00323FF
:1013AC0004E0022302E0012300E00023FA6902F0CA
:1013BC00030292009340BA691343BB613449FB6941
:1013CC009B080233BA6941F823203C4B1B68BB6174
:1013DC003B69DB43BA691340BB613B685B6803F450
:1013EC008033002B03D0BA693B691343BB61334A8A
:1013FC00BB691360314B5B68BB613B69DB43BA690A
:10140C001340BB613B685B6803F40033002B03D0D3
:10141C00BA693B691343BB61284ABB695360274BCC
:10142C009B68BB613B69DB43BA691340BB613B689A
:10143C005B6803F48013002B03D0BA693B69134338
:10144C00BB611E4ABB6993601C4BDB68BB613B698B
:10145C00DB43BA691340BB613B685B6803F4001360
:10146C00002B03D0BA693B691343BB61134ABB69B8
:10147C00D360FB690133FB61FB690F2B7FF68AAEEE
:10148C002437BD465DF8047B704700BF003802402E
:10149C0000380140000002400004024000080240F5
:1014AC00000C0240001002400014024000180240E0
:1014BC00001C02400020024000240240003C01407D
:1014CC0080B487B000AF7860396000233B610023A3
:1014DC00FB600023BB6000237B61DAE07B690122A7
:1014EC0002FA03F33B613A683B691340FB60FA680C
:1014FC003B699A4240F0CA807B681A687B695B0042
:10150C00194603238B40DB431A407B681A607B69C6
:10151C00DA087B69D9087B68083153F821107B699C
:10152C0003F007039B0018460F238340DB4319404D
:10153C007B68083243F822107B689A687B695B00F1
:10154C00194603238B40DB431A407B689A607B6807
:10155C005A687B69012101FA03F3DB431A407B686B
:10156C005A607B68DA687B695B00194603238B4001
:10157C00DB431A407B68DA604A4A7B699B0802337A
:10158C0052F82330BB607B6903F003039B001A46BF
:10159C000F239340BA681340BB607B68424A934266
:1015AC0037D07B68414A934231D07B68404A9342A2
:1015BC002BD07B683F4A934225D07B683E4A9342AE
:1015CC001FD07B683D4A934219D07B683C4A9342BA
:1015DC0013D07B683B4A93420DD07B683A4A9342C6
:1015EC0007D07B68394A934201D1092312E00A23C0
:1015FC0010E008230EE007230CE006230AE0052385
:10160C0008E0042306E0032304E0022302E00123A4
:10161C0000E000237A6902F00302920003FA02F25E
:10162C00BB689A4232D17B6903F003039B001A46D4
:10163C000F239340BB601B487B699B0819497A694F
:10164C009208023251F82210BA68D2430A4002338F
:10165C0040F823201E491E4B1A68FB68DB431340DD
:10166C000B601B491A4B5A68FB68DB4313404B60F9
:10167C001749174B9A68FB68DB4313408B6014497E
:10168C00134BDA68FB68DB431340CB607B69013397
:10169C007B617B690F2B7FF621AF1C37BD465DF854
:1016AC00047B7047003801400000024000040240F7
:1016BC0000080240000C02400010024000140240DE
:1016CC0000180240001C024000200240002402408E
:1016DC00003C014080B485B000AF78600B467B8045
:1016EC007B681A697B881340002B02D00123FB73A3
:1016FC0001E00023FB73FB7B18461437BD465DF8F5
:10170C00047B704780B483B000AF78600B467B805D
:10171C0013467B707B78002B03D07A887B689A61A8
:10172C0003E07B881A047B689A610C37BD465DF830
:10173C00047B704780B483B000AF78600B467B802D
:10174C007B685A697B885A407B685A610C37BD4666
:10175C005DF8047B704700BF80B485B000AF786043
:10176C000B467B804FF48033FB607A88FB68134315
:10177C00FB60FA687B68DA617A887B68DA61FA6800
:10178C007B68DA617B68DB69FB607B68DB6903F48F
:10179C008033002B01D0002300E0012318461437BE
:1017AC00BD465DF8047B704780B582B000AF034640
:1017BC00FB80084B5A69FB881340002B06D0054A66
:1017CC00FB885361FB88184600F006F80837BD46C5
:1017DC0080BD00BF003C014080B483B000AF034625
:1017EC00FB800C37BD465DF8047B704780B400AFBE
:1017FC001A4A1A4B1B6843F081031360174B0022E3
:10180C009A60164A154B1B6823F0A16323F48033AE
:10181C001360124B00225A601049104B5A68104B3F
:10182C0013434B600D4B0022C3F884200B4A0B4B27
:10183C00D3F8843043F0005343F44053C2F884305F
:10184C00064A064B1B6823F480231360034B0022CB
:10185C00DA60BD465DF8047B704700BF003802407B
:10186C001030000480B598B000AF78600023FB65A1
:10187C007B681B6803F00103002B6AD0A64B9B68A6
:10188C0003F00C03042B0BD0A34B9B6803F00C034D
:10189C00082B12D1A04B5B6803F48003002B0CD0F7
:1018AC009D4B1B6803F40033002B05D07B685B68F1
:1018BC00002B01D1012324E24BE0984B00221A703B
:1018CC0001F0C2FBF8650AE001F0BEFB0246FB6DBD
:1018DC00D31A41F28832934201D9032311E28E4B81
:1018EC001B6803F40033002BEED18C4A7B685B68D9
:1018FC00DBB213707B685B68002B15D001F0A4FB86
:10190C00F8650AE001F0A0FB0246FB6DD31A41F228
:10191C008832934201D90323F3E17F4B1B6803F414
:10192C000033002BEED014E001F08EFBF8650AE0DA
:10193C0001F08AFB0246FB6DD31A41F288329342C6
:10194C0001D90323DDE1744B1B6803F40033002B36
:10195C00EED17B681B6803F00203002B7FD06E4B2B
:10196C009B6803F00C03002B0BD06B4B9B6803F0B4
:10197C000C03082B2AD1684B5B6803F48003002B03
:10198C0024D1654B1B6803F00203002B05D07B6848
:10199C00DB68012B01D00123B3E15F485E4B1B6870
:1019AC0023F0F8027B681B69F821B965B96D91FACF
:1019BC00A1F17965796D3965396DB1FA81F1F96407
:1019CC00F96CC9B28B401343036048E07B68DB6859
:1019DC00002B2ED0524B01221A6001F035FBF8651A
:1019EC0008E001F031FB0246FB6DD31A642B01D9E0
:1019FC00032386E1484B1B6803F00203002BF0D055
:101A0C004548454B1B6823F0F8027B681B69F8219D
:101A1C00B964B96C91FAA1F17964796C3964396C57
:101A2C00B1FA81F1F963F96BC9B28B4013430360CE
:101A3C0015E03B4B00221A6001F006FBF86508E04C
:101A4C0001F002FB0246FB6DD31A642B01D9032370
:101A5C0057E1314B1B6803F00203002BF0D17B687C
:101A6C001B6803F00803002B30D07B685B69002BEC
:101A7C0016D02C4B01221A6001F0E6FAF86508E04A
:101A8C0001F0E2FA0246FB6DD31A642B01D9032351
:101A9C0037E1214B5B6F03F00203002BF0D015E014
:101AAC00204B00221A6001F0CFFAF86508E001F033
:101ABC00CBFA0246FB6DD31A642B01D9032320E128
:101ACC00154B5B6F03F00203002BF0D17B681B6896
:101ADC0003F00403002B7BD00F4A0F4B1B6C43F01D
:101AEC00805313640C4B1B6C03F08053BB60BB68BE
:101AFC000D4A0D4B1B6843F48073136001F0A4FA7C
:101B0C00F86513E001F0A0FA0246FB6DD31A642BC2
:101B1C000CD90323F5E000BF003802400238024024
:101B2C0000004742800E474200700040774B1B6814
:101B3C0003F48073002BE5D0754B00221A7001F072
:101B4C0083FAF8650AE001F07FFA0246FB6DD31ABE
:101B5C0041F28832934201D90323D2E06D4B1B6FC3
:101B6C0003F00203002BEED1694A7B689B68DBB261
:101B7C0013707B689B68002B15D001F065FAF86533
:101B8C000AE001F061FA0246FB6DD31A41F2883289
:101B9C00934201D90323B4E05E4B1B6F03F00203A5
:101BAC00002BEED014E001F04FFAF8650AE001F0DA
:101BBC004BFA0246FB6DD31A41F28832934201D99B
:101BCC0003239EE0534B1B6F03F00203002BEED15B
:101BDC007B689B69002B00F093804E4B9B6803F055
:101BEC000C03082B00F08A807B689B69022B6ED15A
:101BFC00494B00221A6001F027FAF86508E001F061
:101C0C0023FA0246FB6DD31A642B01D9032378E027
:101C1C00404B1B6803F00073002BF0D13D487B68F0
:101C2C00DA697B681B6A1A437B685B6A47F6C0718A
:101C3C00B963B96B91FAA1F17963796B3963396B3B
:101C4C00B1FA81F1F962F96AC9B28B401A437B6827
:101C5C009B6A5B08013B4FF44031B962B96A91FA57
:101C6C00A1F17962796A3962396AB1FA81F1F96163
:101C7C00F969C9B28B401A437B68DB6A4FF070611B
:101C8C00B961B96991FAA1F17961796939613969F7
:101C9C00B1FA81F1F960F968C9B28B401343436022
:101CAC001D4B01221A6001F0CFF9F86508E001F034
:101CBC00CBF90246FB6DD31A642B01D9032320E028
:101CCC00144B1B6803F00073002BF0D018E0124B80
:101CDC0000221A6001F0B8F9F86508E001F0B4F9D7
:101CEC000246FB6DD31A642B01D9032309E0094B7F
:101CFC001B6803F00073002BF0D101E0012300E01E
:101D0C00002318466037BD4680BD00BF0070004000
:101D1C0070380240003802406000474280B584B001
:101D2C0000AF786039600023FB60A24B1B6803F0A6
:101D3C000F023B689A4280F0A8809E4B3A68D2B260
:101D4C001A709C4B1B6803F00F023B689A4201D03F
:101D5C00012369E17B681B6803F00203002B08D0A8
:101D6C009549954B9B6823F0F0027B689B68134365
:101D7C008B607B681B6803F00103002B00F0318142
:101D8C007B685B68012B07D18B4B1B6803F400331A
:101D9C00002B1AD1012347E17B685B68022B03D02F
:101DAC007B685B68032B08D1834B1B6803F00073C3
:101DBC00002B01D1012337E107E07F4B1B6803F0B7
:101DCC000203002B01D101232EE17B497A4B9B6846
:101DDC0023F003027B685B6813438B6001F034F9DA
:101DEC00F8607B685B68012B12D10AE001F02CF9DA
:101DFC000246FB68D31A41F28832934201D903237D
:101E0C0012E16D4B9B6803F00C03042BEED1E8E060
:101E1C007B685B68022B12D10AE001F015F90246CF
:101E2C00FB68D31A41F28832934201D90323FBE0B9
:101E3C00614B9B6803F00C03082BEED1D1E07B685F
:101E4C005B68032B0ED10AE001F0FEF80246FB683A
:101E5C00D31A41F28832934201D90323E4E0564B62
:101E6C009B68F1E70AE001F0EFF80246FB68D31A31
:101E7C0041F28832934201D90323D5E04E4B9B6843
:101E8C0003F00C03002BEED1ABE07B681B6803F076
:101E9C000203002B08D04849474B9B6823F0F00203
:101EAC007B689B6813438B607B681B6803F00103A2
:101EBC00002B00F089807B685B68012B07D13E4BBF
:101ECC001B6803F40033002B1AD10123ACE07B68B0
:101EDC005B68022B03D07B685B68032B08D1364B05
:101EEC001B6803F00073002B01D101239CE007E079
:101EFC00314B1B6803F00203002B01D1012393E04B
:101F0C002D492D4B9B6823F003027B685B681343C0
:101F1C008B6001F099F8F8607B685B68012B12D13B
:101F2C000AE001F091F80246FB68D31A41F28832BC
:101F3C00934201D9032377E01F4B9B6803F00C03FA
:101F4C00042BEED140E07B685B68022B12D10AE0D7
:101F5C0001F07AF80246FB68D31A41F288329342B8
:101F6C0001D9032360E0144B9B6803F00C03082B8E
:101F7C00EED129E07B685B68032B0ED10AE001F0FF
:101F8C0063F80246FB68D31A41F28832934201D9B6
:101F9C00032349E0084B9B68F1E70FE001F054F88C
:101FAC000246FB68D31A41F28832934206D90323C6
:101FBC003AE000BF003C0240003802401C4B9B68DA
:101FCC0003F00C03002BE9D11A4B3A68D2B21A7009
:101FDC00184B1B6803F00F023B689A4201D0012397
:101FEC0022E07B681B6803F00403002B08D0104927
:101FFC000F4B9B6823F4E0527B68DB6813438B60C8
:10200C007B681B6803F00803002B09D00849084BB8
:10201C009B6823F460427B681B69DB0013438B6075
:10202C000F2000F0E7FF002318461037BD4680BD97
:10203C0000380240003C024080B58CB000AFF86024
:10204C00B9607A60FB68002B27D1294A284B1B6B9F
:10205C0043F001031363264B1B6B03F00103BB61BD
:10206C00BB694FF48073FB6102233B620323BB62A9
:10207C0000237B620023FB6207F11C031D481946F9
:10208C00FFF77AF81A481A4B9B6823F0EC62B96890
:10209C007B680B431343836027E0154A144B1B6B7F
:1020AC0043F004031363124B1B6B03F004037B61BB
:1020BC007B694FF40073FB6102233B620323BB6219
:1020CC0000237B620023FB6207F11C030A481946BC
:1020DC00FFF752F80648064B9B6823F078427B6862
:1020EC00D900BB680B43134383603037BD4680BDBA
:1020FC0000380240000002400008024080B400AFEB
:10210C00034B01221A60BD465DF8047B704700BF8B
:10211C004C00474280B400AF034B00221A60BD460E
:10212C005DF8047B704700BF4C00474280B491B00F
:10213C0000AF00237B630023FB6300233B6300237E
:10214C00BB633D4B9B6803F00C03042B06D0082BA0
:10215C0007D0002B66D1394BBB6366E0384BBB63B1
:10216C0063E0354B5B6803F03F037B63324B5B688A
:10217C0003F48003002B1CD0314A7B6BB2FBF3F2CF
:10218C002D4B596847F6C0730B4047F6C071F96286
:10219C00F96A91FAA1F1B962B96A7962796AB1FA0C
:1021AC0081F13962396AC9B2CB4003FB02F3FB639C
:1021BC001BE0224A7B6BB2FBF3F21F4B596847F6CC
:1021CC00C0730B4047F6C071F961F96991FAA1F13E
:1021DC00B961B96979617969B1FA81F139613969A2
:1021EC00C9B2CB4003FB02F3FB63134B5B6803F4F4
:1021FC0040334FF44032FA60FA6892FAA2F2BA60B5
:10220C00BA687A607A68B2FA82F23A603A68D2B204
:10221C00D34001335B003B63FA6B3B6BB2FBF3F3D4
:10222C00BB6302E0054BBB6300BFBB6B1846443776
:10223C00BD465DF8047B7047003802400024F40072
:10224C0000127A0080B584B000AFFFF76FFF014633
:10225C000F4B9B6803F0F003F022FA60FA6892FAD5
:10226C00A2F2BA60BA687A607A68B2FA82F23A601C
:10227C003A68D2B2D340074AD35C21FA03F3064A38
:10228C001360054B1B6818461037BD4680BD00BF58
:10229C00003802405C4000080000002080B584B08B
:1022AC0000AFFFF7CFFF01460D4B9B6803F4E053E3
:1022BC004FF4E052FA60FA6892FAA2F2BA60BA6885
:1022CC007A607A68B2FA82F23A603A68D2B2D34053
:1022DC00044AD35C21FA03F318461037BD4680BD7F
:1022EC00003802405C40000880B584B000AFFFF7B6
:1022FC00A9FF01460D4B9B6803F460434FF4604209
:10230C00FA60FA6892FAA2F2BA60BA687A607A68ED
:10231C00B2FA82F23A603A68D2B2D340044AD35C41
:10232C0021FA03F318461037BD4680BD0038024031
:10233C005C40000880B493B000AF78607B680F22DB
:10234C001A60624B1B6803F48023002B03D07B685C
:10235C0005225A600CE05D4B1B6803F48033002BA4
:10236C0003D07B6801225A6002E07B6800225A602D
:10237C00564B1B6803F00103002B03D07B68012232
:10238C00DA6002E07B680022DA60504B1B6803F0D5
:10239C00F803F8227A647A6C92FAA2F23A643A6CF4
:1023AC00FA63FA6BB2FA82F2BA63BA6BD2B223FA5C
:1023BC0002F27B681A61454B1B6F03F00403002B80
:1023CC0003D07B6805229A600CE0404B1B6F03F036
:1023DC000103002B03D07B6801229A6002E07B682A
:1023EC0000229A60394B5B6F03F00103002B03D082
:1023FC007B6801225A6102E07B6800225A61334BF0
:10240C001B6803F08073002B03D07B6802229A6157
:10241C0002E07B6801229A612C4B5B6803F480021A
:10242C007B68DA61294B5B6803F03F027B681A62B8
:10243C00264B5A6847F6C073134047F6C0727A634E
:10244C007A6B92FAA2F23A633A6BFA62FA6AB2FACD
:10245C0082F2BA62BA6AD2B223FA02F27B685A6288
:10246C001A4B5B6803F4403303F580335B004FF485
:10247C0040327A627A6A92FAA2F23A623A6AFA6163
:10248C00FA69B2FA82F2BA61BA69D2B223FA02F2EA
:10249C007B689A620D4B5B6803F070634FF070625F
:1024AC007A617A6992FAA2F23A613A69FA60FA6848
:1024BC00B2FA82F2BA60BA68D2B223FA02F27B683C
:1024CC00DA624C37BD465DF8047B70470038024039
:1024DC0080B483B000AF786039607B680F221A60DB
:1024EC00114B9B6803F003027B685A600E4B9B6890
:1024FC0003F0F0027B689A600B4B9B6803F4E0528C
:10250C007B68DA60084B9B6803F46043DA087B68ED
:10251C001A61064B1B6803F00F023B681A600C37FC
:10252C00BD465DF8047B704700380240003C024019
:10253C0080B500AF054BDB6803F08003002B04D0A3
:10254C0000F008F8024B80221A7080BD003802405F
:10255C000E38024080B400AFBD465DF8047B704776
:10256C0080B400AF124A124B1B6843F00103136096
:10257C000F4B00229A600E4A0D4B1B6823F084739C
:10258C0023F4803313600A4B0A4A5A60084A084BFA
:10259C001B6823F480231360054B0022DA60064B82
:1025AC004FF000629A60BD465DF8047B704700BF37
:1025BC00003802401030002400ED00E080B487B0F9
:1025CC0000AF00233B6100237B610223FB600023EF
:1025DC00BB6002237B60324B9B6803F00C033B61B6
:1025EC003B69042B07D0082B09D0002B3FD12D4B76
:1025FC002D4A1A603FE02B4B2C4A1A603BE0284BCB
:10260C005B6803F480039B0DBB60254B5B6803F098
:10261C003F037B60BB68002B0DD0244A7B68B2FB68
:10262C00F3F21F4B596847F6C0730B409B0903FB31
:10263C0002F37B610CE01C4A7B68B2FBF3F2184B93
:10264C00596847F6C0730B409B0903FB02F37B618F
:10265C00134B5B6803F440331B0C01335B00FB60D2
:10266C007A69FB68B2FBF3F30E4A136003E00D4B7F
:10267C000D4A1A6000BF0A4B9B6803F0F0031B095C
:10268C000B4AD35CDBB23B61064B1A683B6922FAFE
:10269C0003F3044A13601C37BD465DF8047B704796
:1026AC0000380240000000200024F40000127A00E0
:1026BC000400002080B500AF1C4B1D4A9A60FDF74A
:1026CC0009FE00F029FE1B4B01221A60194B1A4A15
:1026DC00DA60184B4FF000521A61164B0C229A60BC
:1026EC004FF000504DF6AD61FDF798FD13484BF6D9
:1026FC00EF61FDF793FD124841F23421FDF78EFD99
:10270C00104845F27861FDF789FD0F484AF6CD3146
:10271C00FDF784FD0D484CF6FE21FDF77FFD054BC2
:10272C001B68184600F012FEF9E700BF00ED00E050
:10273C0000000008004E00200000040802000020E9
:10274C000400002006000020080000200A000020E1
:10275C0080B586B000AF0123BB604FF400637B6093
:10276C000023FB6002233B613B1D03481946FEF727
:10277C0003FD1837BD4680BD0008024080B586B009
:10278C0000AF1123BB604FF480737B600123FB60AF
:10279C0002233B613B1D03481946FEF7EDFC18373D
:1027AC00BD4680BD0008024080B586B000AF012355
:1027BC00BB604FF480537B600123FB6002233B61C1
:1027CC003B1D03481946FEF7D7FC1837BD4680BDA4
:1027DC000008024080B586B000AF0023BB604FF408
:1027EC0080537B600123FB6002233B613B1D03484C
:1027FC001946FEF7C1FC1837BD4680BD00080240E3
:10280C0080B584B000AF1C4A1B4B1B6B43F001031B
:10281C001363194B1B6B03F00103FB60FB68164A37
:10282C00154B1B6B43F002031363134B1B6B03F031
:10283C000203BB60BB68104A0F4B1B6B43F00403D5
:10284C0013630D4B1B6B03F004037B607B680A4A1C
:10285C00094B1B6B43F040031363074B1B6B03F0DB
:10286C0040033B603B68FFF773FFFFF787FFFFF701
:10287C009BFF1037BD4680BD0038024080B58AB042
:10288C0000AF214A204B1B6B43F0010313631E4B1B
:10289C001B6B03F001033B613B691B4A1A4B1B6B1F
:1028AC0043F002031363184B1B6B03F00203FB6032
:1028BC00FB68154A144B1B6B43F004031363124B58
:1028CC001B6B03F00403BB60BB680F4A0E4B1B6B06
:1028DC0043F0400313630C4B1B6B03F040037B6012
:1028EC007B680123BB614FF4C0437B610023FB6118
:1028FC0003233B6207F1140304481946FEF73CFC22
:10290C002837BD4680BD00BF003802400018024089
:10291C0080B586B000AF0E4A0D4B1B6B43F0010324
:10292C0013630B4B1B6B03F001033B603B680023F1
:10293C00BB6001237B600223FB6003233B613B1DD7
:10294C0004481946FEF718FC1837BD4680BD00BF79
:10295C00003802400000024080B500AF034801215E
:10296C00FEF7B8FE0346184680BD00BF00000240CB
:10297C0080B588B000AF214A204B1B6B43F001039C
:10298C0013631E4B1B6B03F00103BB60BB681B4A3C
:10299C001A4B1B6B43F001031363184B1B6B03F0B7
:1029AC0001037B607B68154A144B5B6C43F010038E
:1029BC005364124B5B6C03F010033B603B684FF4A9
:1029CC000073FB6002233B6100237B610223BB612C
:1029DC000723FB6107F10C0309481946FEF7CCFBF2
:1029EC004FF48063FB600723FB6107F10C03044881
:1029FC001946FEF7C1FB2037BD4680BD00380240AA
:102A0C000000024080B485B000AF78607B6803F0B2
:102A1C000703FB600C4BDB68BB60BA684FF6FF0327
:102A2C001340BB60FB681A02BB68134343F0BF63DF
:102A3C0043F40033BB60044ABB68D3601437BD4613
:102A4C005DF8047B704700BF00ED00E080B400AF80
:102A5C00044BDB6803F4E0631B0A1846BD465DF8C3
:102A6C00047B704700ED00E080B483B000AF0346F8
:102A7C00FB71084997F907305B09FA7902F01F02DC
:102A8C00012000FA02F241F823200C37BD465DF814
:102A9C00047B704700E100E080B483B000AF0346D4
:102AAC00FB71094997F907305B09FA7902F01F02AB
:102ABC00012000FA02F2203341F823200C37BD46E6
:102ACC005DF8047B704700BF00E100E080B483B088
:102ADC0000AF0346FB710C4A97F907305B09403392
:102AEC0052F82330FA7902F01F02012101FA02F2A6
:102AFC001340002B01D0012300E0002318460C37B3
:102B0C00BD465DF8047B704700E100E080B483B003
:102B1C0000AF0346FB71094997F907305B09FA7955
:102B2C0002F01F02012000FA02F2403341F8232088
:102B3C000C37BD465DF8047B704700BF00E100E038
:102B4C0080B483B000AF0346FB71094997F9073095
:102B5C005B09FA7902F01F02012000FA02F26033DD
:102B6C0041F823200C37BD465DF8047B704700BF4D
:102B7C0000E100E080B483B000AF0346FB710C4A67
:102B8C0097F907305B09803352F82330FA7902F059
:102B9C001F02012101FA02F21340002B01D0012384
:102BAC0000E0002318460C37BD465DF8047B7047E7
:102BBC0000E100E080B483B000AF03463960FB71E4
:102BCC0097F90730002B0BDA0D49FB7903F00F0353
:102BDC00043B3A68D2B21201D2B20B441A7609E025
:102BEC00084997F907303A68D2B21201D2B20B44B5
:102BFC0083F800230C37BD465DF8047B704700BF9B
:102C0C0000ED00E000E100E080B483B000AF0346CB
:102C1C00FB7197F90730002B0ADA0D4AFB7903F0A8
:102C2C000F03043B13441B7EDBB21B09DBB208E031
:102C3C00084A97F90730134493F80033DBB21B09A9
:102C4C00DBB218460C37BD465DF8047B704700BFFD
:102C5C0000ED00E000E100E080B489B000AFF86066
:102C6C00B9607A60FB6803F00703FB61FB69C3F191
:102C7C000703042B28BF0423BB61FB690433062B19
:102C8C0002D9FB69033B00E000237B61BB69012295
:102C9C0002FA03F3013B1A46BB681A407B699A405F
:102CAC007B69012101FA03F3013B19467B680B4058
:102CBC00134318462437BD465DF8047B704700BFAC
:102CCC0080B489B000AFF860B9607A603B60BB68D3
:102CDC0003F00703FB61FB69C3F10703042B28BF57
:102CEC000423BB61FB690433062B02D9FB69033B4C
:102CFC0000E000237B617B69FA6822FA03F3BA696E
:102D0C00012101FA02F2013A1A407B681A607B69D0
:102D1C00012202FA03F3013B1A46FB681A403B6896
:102D2C001A602437BD465DF8047B704780B400AF51
:102D3C00BFF34F8F0549054BDB6803F4E062044B8E
:102D4C001343CB60BFF34F8FFEE700BF00ED00E0F5
:102D5C000400FA0580B582B000AF78607B68013B57
:102D6C00B3F1807F01D301230FE00A4A7B68013B5A
:102D7C0053604FF0FF300F21FFF71CFF054B002273
:102D8C009A60044B07221A60002318460837BD4688
:102D9C0080BD00BF10E000E080B582B000AF78606D
:102DAC007868FFF72FFE0837BD4680BD80B586B02A
:102DBC0000AF0346B9607A60FB7300237B61FFF7B9
:102DCC0045FE78617869B9687A68FFF745FF024675
:102DDC0097F90F3018461146FFF7ECFE1837BD4631
:102DEC0080BD00BF80B582B000AF0346FB7197F980
:102DFC0007301846FFF738FE0837BD4680BD00BFC8
:102E0C0080B582B000AF0346FB7197F907301846C6
:102E1C00FFF742FE0837BD4680BD00BF80B500AF4E
:102E2C00FFF784FF80BD00BF80B582B000AF786033
:102E3C007868FFF78FFF034618460837BD4680BDFC
:102E4C0080B500AFFFF702FE0346184680BD00BFF9
:102E5C0080B584B000AFB9607A603B600346FB7309
:102E6C0097F90F301846FFF7CFFE03461846B9689E
:102E7C007A683B68FFF724FF1037BD4680BD00BF62
:102E8C0080B582B000AF0346FB7197F90730184646
:102E9C00FFF73CFE0837BD4680BD00BF80B582B051
:102EAC0000AF0346FB7197F907301846FFF70EFE8B
:102EBC00034618460837BD4680BD00BF80B582B0BA
:102ECC0000AF0346FB7197F907301846FFF738FE41
:102EDC000837BD4680BD00BF80B582B000AF034649
:102EEC00FB7197F907301846FFF744FE0346184666
:102EFC000837BD4680BD00BF80B483B000AF78609A
:102F0C007B68042B06D1094A084B1B6843F0040369
:102F1C00136005E0054A054B1B6823F0040313609E
:102F2C000C37BD465DF8047B704700BF10E000E035
:102F3C0080B500AF00F002F880BD00BF80B400AFD8
:102F4C00BD465DF8047B704780B500AF0C4A0C4B56
:102F5C001B6843F400731360094A094B1B6843F464
:102F6C0080631360064A064B1B6843F4807313603E
:102F7C000F2000F03FF800F031F80023184680BD18
:102F8C00003C024080B500AF134B4FF0FF321A6289
:102F9C00114B00221A62104B4FF0FF325A620E4B4B
:102FAC0000225A620C4B4FF0FF321A610A4B00227E
:102FBC001A61094B4FF0FF325A61074B00225A61DC
:102FCC00054B4FF0FF329A61034B00229A6100F0DF
:102FDC000BF80023184680BD0038024080B400AFC7
:102FEC00BD465DF8047B704780B400AFBD465DF80C
:102FFC00047B704780B582B000AF7860FFF722F990
:10300C000246094BA3FB02239B091846FFF70CFF52
:10301C004FF0FF3079680022FFF7C8FE00231846F6
:10302C000837BD4680BD00BFD34D621080B400AFE1
:10303C00044B1B680133034A1360BD465DF8047BE7
:10304C00704700BF5C04002080B400AF034B1B68CA
:10305C001846BD465DF8047B704700BF5C04002039
:10306C0080B584B000AF78600023FB60FFF7ECFF05
:10307C00F86000BFFFF7E8FF0246FB68D21A7B68D6
:10308C009A42F7D31037BD4680BD00BF80B400AF65
:10309C00044A044B1B6823F002031360BD465DF821
:1030AC00047B704710E000E080B400AF044A044B8E
:1030BC001B6843F002031360BD465DF8047B704748
:1030CC0010E000E080B400AF024B1846BD465DF83E
:1030DC00047B70470000030180B400AF034B1B68F6
:1030EC001B0C1846BD465DF8047B7047002004E0BD
:1030FC0080B400AF044B1B68C3F30B031846BD46EA
:10310C005DF8047B704700BF002004E080B400AF82
:10311C00044A044B5B6843F001035360BD465DF801
:10312C00047B7047002004E080B400AF044A044BD9
:10313C005B6823F001035360BD465DF8047B704768
:10314C00002004E080B400AF044A044B5B6843F0F9
:10315C0002035360BD465DF8047B7047002004E019
:10316C0080B400AF044A044B5B6823F00203536045
:10317C00BD465DF8047B7047002004E080B400AFCE
:10318C00044A044B5B6843F004035360BD465DF88E
:10319C00047B7047002004E080B400AF044A044B69
:1031AC005B6823F004035360BD465DF8047B7047F5
:1031BC00002004E080B485B000AF0123FB60FB6805
:1031CC0093FAA3F3BB60BB687B607B68B3FA83F3B1
:1031DC003B603B68DBB29B001A46054B13441A4616
:1031EC00012313601437BD465DF8047B704700BFA4
:1031FC000004274280B485B000AF0123FB60FB685C
:10320C0093FAA3F3BB60BB687B607B68B3FA83F370
:10321C003B603B68DBB29B001A46054B13441A46D5
:10322C00002313601437BD465DF8047B704700BF64
:10323C000004274280B485B000AF4FF48073FB606C
:10324C00FB6893FAA3F3BB60BB687B607B68B3FA43
:10325C0083F33B603B68DBB29B0003F1844303F5D3
:10326C001C131A46012313601437BD465DF8047B0A
:10327C00704700BF80B485B000AF4FF48073FB6023
:10328C00FB6893FAA3F3BB60BB687B607B68B3FA03
:10329C0083F33B603B68DBB29B0003F1844303F593
:1032AC001C131A46002313601437BD465DF8047BCB
:1032BC00704700BF80B400AFBD465DF8047B70471B
:1032CC0080B400AFFEE700BF80B400AFFEE700BFE4
:1032DC0080B400AFFEE700BF80B400AFFEE700BFD4
:1032EC001EF0040F0CBFEFF30880EFF3098000F021
:1032FC0089B800BF80B400AFBD465DF8047B704751
:10330C0080B400AFBD465DF8047B704780B500AF5C
:10331C00FFF78CFE80BD00BF80B400AF0A4B0022CB
:10332C001A60094B00225A60074B00229A60064B28
:10333C000022DA60044B00221A61034B00225A610E
:10334C00BD465DF8047B7047004E002080B582B00E
:10335C0000AF78607B68022B06D0032B07D0012BC3
:10336C0008D100F00BF805E000F022F802E000F0C4
:10337C0035F800BF0837BD4680BD00BF80B500AF33
:10338C000A4B01225A60094B1969084BDA68074B42
:10339C009B68084611461A4600F088FA034B002237
:1033AC001A60024B00225A6080BD00BF004E002004
:1033BC0080B500AF084B01225A60074BDA68064B08
:1033CC009B681046194600F0A9F8034B00221A60BE
:1033DC00014B00225A6080BD004E002080B500AF2A
:1033EC00074B01225A60064B5B69184600F06EF8D9
:1033FC00034B00221A60024B00225A6080BD00BFB2
:10340C00004E002080B582B000AF786000BF7B68B2
:10341C001B68002BFBD07B681B68012B04D17B68DD
:10342C0004331A4A1A602BE07B681B68022B0ED1FE
:10343C007B68043319687B6808331A687B680C3323
:10344C001B68084611461A4600F030FA18E07B68F3
:10345C001B68032B0AD17B6804331A687B6808331A
:10346C001B681046194600F059F809E07B681B6888
:10347C00042B05D17B6804331B68184600F026F832
:10348C007B6800221A600837BD4680BD00280120E9
:10349C0080B400AF00DFBD465DF8047B704700BF11
:1034AC0080B582B000AF00237B600748FCF7A6FE16
:1034BC0078607B68002B01D0012300E000231846C4
:1034CC000837BD4680BD00BF24ED00E080B582B05A
:1034DC0000AF786000F088FB0D4B01221A600C4B9A
:1034EC0002221A610A4A7B68536009480949FCF7B1
:1034FC00FBFE0346002B06D000F0E0FB0246064B19
:10350C001A6000F0C7F900F089FB0837BD4680BD92
:10351C0060040020780400207404002080B584B07E
:10352C0000AF786039600023FB600023BB6000F0C3
:10353C005BFB786800F076F8F8603A687B681344B7
:10354C00184600F06FF80246FB68D31A0133BB60D3
:10355C000F4B00221A600E4B02221A610C4AFB68B8
:10356C0093600B4ABB68D36009480A49FCF7BCFE60
:10357C000346002B06D000F0A1FB0246064B1A6056
:10358C0000F088F900F04AFB1037BD4680BD00BF43
:10359C0060040020780400207404002080B584B0FE
:1035AC0000AFF860B9607A607B681A464FF0000390
:1035BC00F868B96800F0AAF90346002B06D000F0B1
:1035CC007DFB0246034B1A6000F064F91037BD46D0
:1035DC0080BD00BF7404002080B588B000AFF860D7
:1035EC00B9607A60BB68BB617B68BA6813447B6165
:1035FC0000F0FAFABB69FB610BE0FB681A1DFA607C
:10360C001B680220F9691A46FFF7C8FFFB690433EF
:10361C00FB61FA697B699A42EFD300F0FFFA20371D
:10362C00BD4680BD80B485B000AF78600023FB60E0
:10363C007B68824A934206D87B68B3F1006F02D351
:10364C000023FB60F3E07B687D4A934206D87B68DD
:10365C007A4A934202D90123FB60E8E07B68794AFD
:10366C00934206D87B68764A934202D90223FB60C8
:10367C00DDE07B68744A934206D87B68714A9342BA
:10368C0002D90323FB60D2E07B68704A934206D8D0
:10369C007B686D4A934202D90423FB60C7E07B68C8
:1036AC006B4A934206D87B68684A934202D9052339
:1036BC00FB60BCE07B68674A934206D87B68644A2F
:1036CC00934202D90623FB60B1E07B68624A9342C5
:1036DC0006D87B685F4A934202D90723FB60A6E0B9
:1036EC007B685E4A934206D87B685B4A934202D958
:1036FC000823FB609BE07B68594A934206D87B68A1
:10370C00564A934202D90923FB6090E07B68554AE4
:10371C00934206D87B68524A934202D90A23FB6033
:10372C0085E07B68B3F1016F06D27B684D4A93420A
:10373C0002D90B23FB607AE07B684B4A934206D894
:10374C007B68B3F1016F02D30C23FB606FE07B68E5
:10375C00464A934206D87B68434A934202D90D23CA
:10376C00FB6064E07B68424A934206D87B683F4A20
:10377C00934202D90E23FB6059E07B683D4A934289
:10378C0006D87B683A4A934202D90F23FB604EE07D
:10379C007B68394A934206D87B68364A934202D9F1
:1037AC001023FB6043E07B68344A934206D87B6865
:1037BC00314A934202D91123FB6038E07B68304ACE
:1037CC00934206D87B682D4A934202D91223FB60A0
:1037DC002DE07B682B4A934206D87B68284A93429B
:1037EC0002D91323FB6022E07B68274A934206D858
:1037FC007B68244A934202D91423FB6017E07B6850
:10380C00224A934206D87B681F4A934202D9152359
:10381C00FB600CE07B681E4A934206D87B681B4A0F
:10382C00934202D91623FB6001E01723FB60FB686F
:10383C0018461437BD465DF8047B7047FF3F0008FF
:10384C00FF7F0008FFBF0008FFFF0008FFFF010813
:10385C00FFFF0308FFFF0508FFFF0708FFFF09082C
:10386C00FFFF0B08FFFF0D08FF3F1008FF7F10083C
:10387C00FFBF1008FFFF1008FFFF1108FFFF130820
:10388C00FFFF1508FFFF1708FFFF1908FFFF1B08B4
:10389C00FFFF1D0880B500AF03484FF480410122A3
:1038AC00FDF730FFFEE700BF0018024080B588B07E
:1038BC0000AFF860B9607A600023FB74FB68BB61F1
:1038CC00BB687B6100F090F90023FB6115E0B869DF
:1038DC00FCF794FC0346DBB2FB74FB7CDBB20020F0
:1038EC0079691A46FFF75AFEFB690133FB61BB6924
:1038FC000133BB617B6901337B61FA697B689A4256
:10390C00E5DB00F08BF92037BD4680BD80B586B075
:10391C0000AFF860B960C7E900230123FB75234BA6
:10392C001B7E012B01D102233BE0204B01221A7696
:10393C004CF2503000F0CEF90346FB75FB7D002BAA
:10394C002BD1FB68002B05D13B78B868194600F0E9
:10395C0061FA16E0FB68012B05D13B88B868194663
:10396C0000F036FA0DE0FB68022B05D13B68B86815
:10397C00194600F00BFA04E0B868D7E9002300F010
:10398C00E1F94CF2503000F0A5F90346FB75084AFA
:10399C00074B1B6923F001031361044B00221A76B9
:1039AC00FB7D18461837BD4680BD00BF7C04002047
:1039BC00003C024080B586B000AFF860B960C7E942
:1039CC0000230023FB75214B1B7E012B01D102230D
:1039DC0038E01E4B01221A761D4A1D4B1B6943F021
:1039EC00807313611A4A1A4B1B6943F000731361FD
:1039FC00174BF322DA60154B03221A70134ABB687B
:103A0C005361FB68002B05D13B78B868194600F070
:103A1C0001FA16E0FB68012B05D13B88B868194602
:103A2C0000F0D6F90DE0FB68022B05D13B68B868B5
:103A3C00194600F0ABF904E0B868D7E9002300F0B0
:103A4C0081F9FB7D18461837BD4680BD7C040020EB
:103A5C00003C024080B582B000AF574A564B1B6900
:103A6C0023F001031361544A534B1B6923F00203E7
:103A7C001361514A504B1B6923F0F80313614E4AF2
:103A8C004D4B1B6923F4004323F0040313614A4B91
:103A9C00DB6803F00103002B4CD0484B1B78DBB2E6
:103AAC00012B31D1454B5B68013B444A5360434B7E
:103ABC005B68002B18D0414BDB687B60786800F0AA
:103ACC007FF83D4BF322DA603C4BDB6801333B4A19
:103ADC00D3603A4BDB687B60384B1B7ADBB278687F
:103AEC001946FCF73BFE25E04FF0FF337B60334A71
:103AFC007B68D360314B00221A70786800F060F854
:103B0C002D4B0122DA6015E02C4B1B78DBB2022B1B
:103B1C0005D12A4B1B69184600F052F804E0274BDC
:103B2C005B69184600F04CF8244B00221A70224BAB
:103B3C000122DA60204BDB6803F4F973002B24D0EC
:103B4C001E4B1B78DBB2012B07D11C4BDB687B6057
:103B5C001A4B4FF0FF32DA600BE0184B1B78DBB2DC
:103B6C00022B03D1154B1B697B6002E0134B5B6985
:103B7C007B6000F06FF9786800F02CF80E4B4FF476
:103B8C00F972DA600D4B00221A700C4B1B78DBB209
:103B9C00002B0ED1084A084B1B6923F0807313616C
:103BAC00054A054B1B6923F000731361034B00227C
:103BBC001A760837BD4680BD003C02407C040020CC
:103BCC0080B483B000AF78600C37BD465DF8047BE1
:103BDC00704700BF80B483B000AF78600C37BD462F
:103BEC005DF8047B704700BF80B400AF084B1B69C5
:103BFC00002B07DA064B074A5A60054B064A5A60F7
:103C0C00002300E001231846BD465DF8047B704795
:103C1C00003C024023016745AB89EFCD80B400AF77
:103C2C00054A054B1B6943F00043136100231846FA
:103C3C00BD465DF8047B7047003C024080B400AF89
:103C4C00094B5B6903F00103002B07D0064B074AB5
:103C5C009A60054B064A9A60002300E0012318463F
:103C6C00BD465DF8047B7047003C02403B2A1908B6
:103C7C007F6E5D4C80B400AF054A054B5B6943F029
:103C8C000103536100231846BD465DF8047B704761
:103C9C00003C024080B500AF074A074B1B78DBB2F3
:103CAC0043F00203DBB213704CF2503000F012F808
:103CBC000346184680BD00BF143C024080B400AFE0
:103CCC00034BDB691846BD465DF8047B704700BFAB
:103CDC007C04002080B584B000AF78600023FB60CA
:103CEC00164B0022DA61FFF7AFF9F86010E07B6841
:103CFC00B3F1FF3F0CD07B68002B07D0FFF7A4F982
:103D0C000246FB68D21A7B689A4201D9032310E061
:103D1C000B4BDB6803F48033002BE8D1084BDB68DA
:103D2C0003F4F973002B03D000F094F8012300E0A6
:103D3C00002318461037BD4680BD00BF7C04002010
:103D4C00003C024080B485B000AFF860C7E90023A6
:103D5C000D4A0D4B1B6923F4407313610A4A0A4B3D
:103D6C001B6943F440731361074A074B1B6943F00B
:103D7C0001031361F968D7E90023C1E90023143763
:103D8C00BD465DF8047B7047003C024080B483B0B4
:103D9C0000AF786039600D4A0C4B1B6923F44073FB
:103DAC0013610A4A094B1B6943F400731361074AF8
:103DBC00064B1B6943F0010313617B683A681A6078
:103DCC000C37BD465DF8047B704700BF003C0240D9
:103DDC0080B483B000AF78600B467B800C4A0C4BF0
:103DEC001B6923F440731361094A094B1B6943F4A3
:103DFC0080731361064A064B1B6943F00103136180
:103E0C007B687A881A800C37BD465DF8047B704756
:103E1C00003C024080B483B000AF78600B46FB706E
:103E2C000B4A0B4B1B6923F440731361084A084B74
:103E3C001B691361064A064B1B6943F001031361AE
:103E4C007B68FA781A700C37BD465DF8047B7047B6
:103E5C00003C024080B400AF254BDB6803F010033C
:103E6C00002B05D0234BDB6943F01003214AD361AF
:103E7C001F4BDB6803F02003002B05D01D4BDB69C7
:103E8C0043F008031B4AD361194BDB6803F0400372
:103E9C00002B05D0174BDB6943F00403154AD361A3
:103EAC00134BDB6803F08003002B05D0114BDB694F
:103EBC0043F002030F4AD3610D4BDB6803F48073AC
:103ECC00002B05D00B4BDB6943F00103094AD3618E
:103EDC00074BDB6803F00203002B05D0054BDB69B5
:103EEC0043F02003034AD361BD465DF8047B704761
:103EFC00003C02407C040020024B13B1024800F04D
:103F0C0005B8704700000000253F0008014600205E
:103F1C000246034600F016B838B5084B084DED1AAA
:103F2C00AC1018BFED1805D0013C55F8043D98476E
:103F3C00002CF9D1BDE8384000F084B87C40000872
:103F4C00804000082DE9F047254C2568D5F84841FC
:103F5C000646884692469946CCB360681F2818DC02
:103F6C00431C7EB104EB80050121C5F888A0D4F870
:103F7C00887101FA00F21743022EC4F88871C5F853
:103F8C0008911ED00230636044F820800020BDE808
:103F9C00F087144B03B34FF4C870AFF300800446A2
:103FAC00D0B1D5F84831002780E88800C5F84841E1
:103FBC0038460123C4F88871C4F88C71002EE1D006
:103FCC00D0E7D4F88C110A43C4F88C21DAE705F554
:103FDC00A674C5F84841C0E74FF0FF30BDE8F08744
:103FEC007040000800000000DFF830D0002103E032
:103FFC000B4B5B58435004310A480B4B42189A4206
:10400C00F6D30A4A02E0002342F8043B084B9A42DA
:10401C00F9D3FEF7A5FAFEF74DFB7047000003201D
:10402C0080400008000000204004002040040020D4
:10403C009C040020FEE70000F8B500BFF8BC08BCEB
:10404C009E467047F8B500BFF8BC08BC9E4670474A
:10405C000000000001020304010203040607080922
:08406C004300000018000020D1
:08407400053F0008D10100081E
:04407C00AD0100088A
:104080000024F4000000000000000000010203040E
:1040900006070809000000000000000004030020DB
:1040A0006C030020D403002000000000000000008A
:1040B0000000000000000000000000000000000000
:1040C0000000000000000000000000006C4000083C
:1040D00000000000000000000000000000000000E0
:1040E00000000000000000000000000000000000D0
:1040F00000000000000000000000000000000000C0
:1041000000000000000000000000000000000000AF
:10411000000000000000000000000000000000009F
:10412000000000000000000000000000000000008F
:10413000000000000000000000000000000000007F
:1041400001000000000000000E33CDAB34126DE61C
:10415000ECDE05000B000000000000000000000085
:10416000000000000000000000000000000000004F
:10417000000000000000000000000000000000003F
:10418000000000000000000000000000000000002F
:10419000000000000000000000000000000000001F
:0400000508003FF5BB
:00000001FF
