:020000040800F2
:10000000FFFF0220051100085511000855110008D6
:100010005511000855110008551100080000000096
:100020000000000000000000000000005511000862
:100030005511000800000000551100085511000876
:1000400055110008551100085511000855110008F8
:1000500055110008551100085511000855110008E8
:1000600055110008551100085511000855110008D8
:1000700055110008551100085511000855110008C8
:1000800055110008551100085511000855110008B8
:1000900055110008551100085511000855110008A8
:1000A0005511000855110008551100085511000898
:1000B0005511000855110008551100085511000888
:1000C0005511000855110008551100085511000878
:1000D0005511000855110008551100085511000868
:1000E0005511000855110008551100085511000858
:1000F0005511000855110008551100085511000848
:100100005511000855110008551100085511000837
:100110005511000855110008551100085511000827
:100120005511000855110008551100085511000817
:100130005511000855110008551100085511000807
:1001400055110008551100085511000855110008F7
:1001500055110008551100085511000855110008E7
:1001600055110008551100085511000855110008D7
:100170005511000855110008551100080000000035
:1001800055110008551100085511000855110008B7
:1001900055110008551100085511000855110008A7
:0C01A00055110008551100085511000809
:1001AC0010B5054C237833B9044B13B10448AFF3A5
:1001BC0000800123237010BD4004002000000000CB
:1001CC0058110008084B10B51BB108480849AFF38B
:1001DC0000800848036803B910BD074B002BFBD007
:1001EC00BDE81040184700BF00000000581100087F
:1001FC0044040020400400200000000080B586B0BC
:10020C0000AF0E4A0D4B1B6B43F0020313630B4BF9
:10021C001B6B03F002033B603B680123BB604FF494
:10022C0080637B600023FB6002233B613B1D044821
:10023C00194600F081F91837BD4680BD00380240E0
:10024C000004024080B586B000AF1123BB604FF4B0
:10025C0080537B600123FB6002233B613B1D034801
:10026C00194600F069F91837BD4680BD00040240FC
:10027C0080B586B000AF0023BB604FF480537B6029
:10028C000123FB6002233B613B1D0348194600F030
:10029C0053F91837BD4680BD0004024080B500AF4D
:1002AC00FFF7ACFF00F06AFE00F0ACFCFEE700BF0D
:1002BC0080B400AF124A124B1B6843F00103136069
:1002CC000F4B00229A600E4A0D4B1B6823F084736F
:1002DC0023F4803313600A4B0A4A5A60084A084BCD
:1002EC001B6823F480231360054B0022DA60064B55
:1002FC004FF000629A60BD465DF8047B704700BF0A
:10030C00003802401030002400ED00E080B487B0CB
:10031C0000AF00233B6100237B610223FB600023C1
:10032C00BB6002237B60324B9B6803F00C033B6188
:10033C003B69042B07D0082B09D0002B3FD12D4B48
:10034C002D4A1A603FE02B4B2C4A1A603BE0284B9D
:10035C005B6803F480039B0DBB60254B5B6803F06B
:10036C003F037B60BB68002B0DD0244A7B68B2FB3B
:10037C00F3F21F4B596847F6C0730B409B0903FB04
:10038C0002F37B610CE01C4A7B68B2FBF3F2184B66
:10039C00596847F6C0730B409B0903FB02F37B6162
:1003AC00134B5B6803F440331B0C01335B00FB60A5
:1003BC007A69FB68B2FBF3F30E4A136003E00D4B52
:1003CC000D4A1A6000BF0A4B9B6803F0F0031B092F
:1003DC000B4AD35CDBB23B61064B1A683B6922FAD1
:1003EC0003F3044A13601C37BD465DF8047B704769
:1003FC0000380240000000200024F40000127A00B3
:10040C000400002080B500AF08484FF48061012241
:10041C0000F058FB00F0CAFB04484FF48061002246
:10042C0000F050FB00F0C2FB80BD00BF0004024096
:10043C0080B582B000AF78607B68012B06D109488B
:10044C004FF48051012200F03DFB05E005484FF4CC
:10045C008051002200F036FBFFF7D4FF0837BD4671
:10046C0080BD00BF0004024080B584B000AF78604E
:10047C0039600023BB600023FB6012E00122FB68A3
:10048C009A407B681340BB60BB68002B03D00120F3
:10049C00FFF7CEFF02E00020FFF7CAFFFB68013335
:1004AC00FB60FA683B689A42E8DB1037BD4680BDBA
:1004BC0080B582B000AF10484FF48061012200F08B
:1004CC0001FB00F073FB0C484FF4805100F0E2FA92
:1004DC000346FB7108484FF48061002200F0F2FAE9
:1004EC0000F064FBFB79012B01D1012300E0002318
:1004FC0018460837BD4680BD0004024080B584B064
:10050C0000AF786039600023FB600EE0FFF7D0FF8E
:10051C00B8607B681A68B968FB6801FA03F31A4380
:10052C007B681A60FB680133FB60FA683B689A428F
:10053C00ECDB1037BD4680BD80B489B000AF78606D
:10054C00396000237B6100233B610023BB610023E6
:10055C00FB6171E1FB69012202FA03F37B613B68E9
:10056C001A687B6913403B613A697B699A4240F097
:10057C0060813B685B68022B03D03B685B68122B85
:10058C0022D1FB69DA087B68083253F82230BB6150
:10059C00FB6903F007039B001A460F239340DB43D0
:1005AC00BA691340BB613B681B69FA6902F0070228
:1005BC0092009340BA691343BB61FB69DA087B680C
:1005CC000832B96943F822107B681B68BB61FB6970
:1005DC005B001A4603239340DB43BA691340BB61AB
:1005EC003B685B6803F00303FA6952009340BA69F5
:1005FC001343BB617B68BA691A603B685B68012B6B
:10060C000BD03B685B68022B07D03B685B68112BF7
:10061C0003D03B685B68122B2FD17B689B68BB6156
:10062C00FB695B001A4603239340DB43BA69134012
:10063C00BB613B68DB68FA6952009340BA691343AB
:10064C00BB617B68BA699A607B685B68BB61FB695C
:10065C00012202FA03F3DB43BA691340BB613B6826
:10066C005B6803F010031A09FB6902FA03F3BA6919
:10067C001343BB617B68BA695A607B68DB68BB61FA
:10068C00FB695B001A4603239340DB43BA691340B2
:10069C00BB613B689B68FA6952009340BA6913438B
:1006AC00BB617B68BA69DA603B685B6803F08053B6
:1006BC00002B00F0BE80654A644B5B6C43F48043B6
:1006CC005364624B5B6C03F48043FB60FB68604AD1
:1006DC00FB699B08023352F82330BB61FB6903F0C2
:1006EC0003039B001A460F239340DB43BA69134064
:1006FC00BB617B68574A934237D07B68564A93421A
:10070C0031D07B68554A93422BD07B68544A934234
:10071C0025D07B68534A93421FD07B68524A934240
:10072C0019D07B68514A934213D07B68504A93424C
:10073C000DD07B684F4A934207D07B684E4A934258
:10074C0001D1092312E00A2310E008230EE007234D
:10075C000CE006230AE0052308E0042306E003234B
:10076C0004E0022302E0012300E00023FA6902F016
:10077C00030292009340BA691343BB613449FB698D
:10078C009B080233BA6941F823203C4B1B68BB61C0
:10079C003B69DB43BA691340BB613B685B6803F49C
:1007AC008033002B03D0BA693B691343BB61334AD6
:1007BC00BB691360314B5B68BB613B69DB43BA6956
:1007CC001340BB613B685B6803F40033002B03D020
:1007DC00BA693B691343BB61284ABB695360274B19
:1007EC009B68BB613B69DB43BA691340BB613B68E7
:1007FC005B6803F48013002B03D0BA693B69134385
:10080C00BB611E4ABB6993601C4BDB68BB613B69D7
:10081C00DB43BA691340BB613B685B6803F40013AC
:10082C00002B03D0BA693B691343BB61134ABB6904
:10083C00D360FB690133FB61FB690F2B7FF68AAE3A
:10084C002437BD465DF8047B704700BF003802407A
:10085C000038014000000240000402400008024041
:10086C00000C02400010024000140240001802402C
:10087C00001C02400020024000240240003C0140C9
:10088C0080B487B000AF7860396000233B610023EF
:10089C00FB600023BB6000237B61DAE07B690122F3
:1008AC0002FA03F33B613A683B691340FB60FA6858
:1008BC003B699A4240F0CA807B681A687B695B008E
:1008CC00194603238B40DB431A407B681A607B6913
:1008DC00DA087B69D9087B68083153F821107B69E9
:1008EC0003F007039B0018460F238340DB4319409A
:1008FC007B68083243F822107B689A687B695B003E
:10090C00194603238B40DB431A407B689A607B6853
:10091C005A687B69012101FA03F3DB431A407B68B7
:10092C005A607B68DA687B695B00194603238B404D
:10093C00DB431A407B68DA604A4A7B699B080233C6
:10094C0052F82330BB607B6903F003039B001A460B
:10095C000F239340BA681340BB607B68424A9342B2
:10096C0037D07B68414A934231D07B68404A9342EE
:10097C002BD07B683F4A934225D07B683E4A9342FA
:10098C001FD07B683D4A934219D07B683C4A934206
:10099C0013D07B683B4A93420DD07B683A4A934212
:1009AC0007D07B68394A934201D1092312E00A230C
:1009BC0010E008230EE007230CE006230AE00523D1
:1009CC0008E0042306E0032304E0022302E00123F1
:1009DC0000E000237A6902F00302920003FA02F2AB
:1009EC00BB689A4232D17B6903F003039B001A4621
:1009FC000F239340BB601B487B699B0819497A699C
:100A0C009208023251F82210BA68D2430A400233DB
:100A1C0040F823201E491E4B1A68FB68DB43134029
:100A2C000B601B491A4B5A68FB68DB4313404B6045
:100A3C001749174B9A68FB68DB4313408B601449CA
:100A4C00134BDA68FB68DB431340CB607B690133E3
:100A5C007B617B690F2B7FF621AF1C37BD465DF8A0
:100A6C00047B704700380140000002400004024043
:100A7C0000080240000C024000100240001402402A
:100A8C0000180240001C02400020024000240240DA
:100A9C00003C014080B485B000AF78600B467B8091
:100AAC007B681A697B881340002B02D00123FB73EF
:100ABC0001E00023FB73FB7B18461437BD465DF841
:100ACC00047B704780B483B000AF78600B467B80AA
:100ADC0013467B707B78002B03D07A887B689A61F5
:100AEC0003E07B881A047B689A610C37BD465DF87D
:100AFC00047B704780B483B000AF78600B467B807A
:100B0C007B685A697B885A407B685A610C37BD46B2
:100B1C005DF8047B704700BF80B485B000AF78608F
:100B2C000B467B804FF48033FB607A88FB68134361
:100B3C00FB60FA687B68DA617A887B68DA61FA684C
:100B4C007B68DA617B68DB69FB607B68DB6903F4DB
:100B5C008033002B01D0002300E00123184614370A
:100B6C00BD465DF8047B704780B582B000AF03468C
:100B7C00FB80084B5A69FB881340002B06D0054AB2
:100B8C00FB885361FB88184600F006F80837BD4611
:100B9C0080BD00BF003C014080B483B000AF034671
:100BAC00FB800C37BD465DF8047B704780B483B086
:100BBC0000AF00237B6002E07B6801337B607B68C5
:100BCC003F2BF9D10C37BD465DF8047B704700BF55
:100BDC0080B582B000AF0A484FF480510022FFF775
:100BEC0071FF00237B6004E0FFF70CFC7B68013392
:100BFC007B607B68022BF7DD0837BD4680BD00BFEC
:100C0C000004024080B586B000AF1123BB604FF4E6
:100C1C0000537B600023FB6002233B613B1D0B48B0
:100C2C001946FFF789FC09484FF400510122FFF7E0
:100C3C0049FFFFF7BBFF05484FF400510022FFF7B7
:100C4C0041FFFFF7B3FF1837BD4680BD00040240DB
:100C5C0080B582B000AF0A484FF480510122FFF7F3
:100C6C0031FF00237B6004E0FFF7CCFB7B68013392
:100C7C007B607B68332BF7DD0837BD4680BD00BF3A
:100C8C000004024080B487B000AFF860B9607A60AD
:100C9C003B6000237B61FA68BB681A447B681A448A
:100CAC003B6813447B617B6903F00103002B01D08B
:100CBC00012300E0002318461C37BD465DF8047B79
:100CCC00704700BF80B588B000AFF860B9607A603B
:100CDC000023FB617868022100F034F8B861786871
:100CEC00032100F02FF87861F868B9687A69BB695C
:100CFC00FFF7C8FF3861FB6943F00103FB61FB6838
:100D0C005B00FA691343FB61BB689B00FA691343F0
:100D1C00FB61BB69DB00FA691343FB617B691B0157
:100D2C00FA691343FB613B695B01FA691343FB618D
:100D3C00FB6943F08003FB61FB6918462037BD4615
:100D4C0080BD00BF80B485B000AF786039600023EF
:100D5C00FB6001223B689A407B681340FB60FB6898
:100D6C00002B01D0012300E0002318461437BD46A8
:100D7C005DF8047B704700BF80B586B000AF78602B
:100D8C000B46FB700023FB6000237B6100233B615F
:100D9C007B68012B04D1FA687B681343FB6021E06C
:100DAC00FB78032B1ED801A252F823F0C90D0008C2
:100DBC00D30D0008DD0D0008E70D0008FB6843F0BB
:100DCC001003FB600EE0FB6843F00803FB6009E0D6
:100DDC00FB6843F00403FB6004E0FB6843F0020390
:100DEC00FB6000BF002000210022FFF76BFF786141
:100DFC00786900F0A3F807F10C0318467969002212
:100E0C0000F044F838613B6918461837BD4680BD80
:100E1C0080B588B000AFF860B9607A6000237B6160
:100E2C000023FB610023BB61FB68002B06D1BB6870
:100E3C0003F001027B6913437B6110E0BB68002B5C
:100E4C0005D0BB68012B02D0BB680F2B05D1BB684A
:100E5C001A017B6913437B6101E0002311E0002040
:100E6C0000210822FFF72EFFF861F86900F066F800
:100E7C0007F114031846F969002200F007F8B8616D
:100E8C00BB6918462037BD4680BD00BF80B586B013
:100E9C0000AFF860B9607A6000237B6107F1100342
:100EAC0018460321FFF704FB3B69012B13D17B6828
:100EBC00002B04D0F8682021FFF720FB09E0FFF796
:100ECC00C1F9FFF79FFAFB681B6818462021FFF752
:100EDC00CBFA01232EE03B69022B2AD100237B6144
:100EEC0022E0B86800F02AF807F110031846032135
:100EFC00FFF7DEFA3B69012B13D17B68002B04D082
:100F0C00F8682021FFF7FAFA09E0FFF79BF9FFF7E1
:100F1C0079FAFB681B6818462021FFF7A5FA012314
:100F2C0008E07B6901337B617B69022BD9DD0523EA
:100F3C0000E0042318461837BD4680BD80B582B04A
:100F4C0000AF7860FFF77EF978680821FFF78CFA1C
:100F5C00FFF78EF9FFF756FA0837BD4680BD00BF84
:100F6C0080B500AFFFF774FE4EF29E701021FFF7B4
:100F7C007BFAFFF76DFEFFF72BFE80BD80B582B0CC
:100F8C0000AFFFF75FF9002001210022FFF79AFE66
:100F9C007860FFF737FEFFF7E3FF7868FFF7CEFFC7
:100FAC003B46184679680122FFF770FFFFF710FEE9
:100FBC000837BD4680BD00BF70B50F4E0F4D761B78
:100FCC00B61018BF002405D0013455F8043B9847DF
:100FDC00A642F9D10A4E0B4D761B00F0B7F8B610AD
:100FEC0018BF002406D0013455F8043B9847A6429C
:100FFC00F9D170BD70BD00BF7811000878110008E0
:10100C008011000878110008024B13B1024800F05F
:10101C0005B870470000000035100008014600209C
:10102C000246034600F016B838B5084B084DED1AC9
:10103C00AC1018BFED1805D0013C55F8043D98478D
:10104C00002CF9D1BDE8384000F086B880110008BA
:10105C00841100082DE9F047254C2568D5F8484146
:10106C000646884692469946CCB360681F2818DC21
:10107C00431C7EB104EB80050121C5F888A0D4F88F
:10108C00887101FA00F21743022EC4F88871C5F872
:10109C0008911ED00230636044F820800020BDE827
:1010AC00F087144B03B34FF4C870AFF300800446C1
:1010BC00D0B1D5F84831002780E88800C5F8484100
:1010CC0038460123C4F88871C4F88C71002EE1D025
:1010DC00D0E7D4F88C110A43C4F88C21DAE705F573
:1010EC00A674C5F84841C0E74FF0FF30BDE8F08763
:1010FC007411000800000000DFF834D0002103E078
:10110C000C4B5B58435004310B480C4B42189A4221
:10111C00F6D30B4A02E0002342F8043B094B9A42F7
:10112C00F9D3FFF7C5F8FFF747FFFFF7B7F870479C
:10113C00FFFF022084110008000000204004002062
:10114C00400400205C040020FEE70000F8B500BF5E
:10115C00F8BC08BC9E467047F8B500BFF8BC08BC8C
:04116C009E467047E4
:081170004300000018000020FC
:0811780015100008D101000868
:04118000AD010008B5
:101184000024F40000000000000000000102030439
:101194000607080900000000000000000403002006
:1011A4006C030020D40300200000000000000000B5
:1011B400000000000000000000000000000000002B
:1011C4000000000000000000000000007011000892
:1011D400000000000000000000000000000000000B
:1011E40000000000000000000000000000000000FB
:1011F40000000000000000000000000000000000EB
:1012040000000000000000000000000000000000DA
:1012140000000000000000000000000000000000CA
:1012240000000000000000000000000000000000BA
:1012340000000000000000000000000000000000AA
:1012440001000000000000000E33CDAB34126DE647
:10125400ECDE05000B0000000000000000000000B0
:10126400000000000000000000000000000000007A
:10127400000000000000000000000000000000006A
:10128400000000000000000000000000000000005A
:10129400000000000000000000000000000000004A
:0400000508001105D9
:00000001FF
