:020000040800F2
:10000000FFFF022075140008C5140008C51400087D
:10001000C5140008C5140008C5140008000000003D
:10002000000000000000000000000000C5140008EF
:10003000C514000800000000C5140008C51400081D
:10004000C5140008C5140008C5140008C51400082C
:10005000C5140008C5140008C5140008C51400081C
:10006000C5140008C5140008C5140008C51400080C
:10007000C5140008C5140008C5140008C5140008FC
:10008000C5140008C5140008C5140008C5140008EC
:10009000C5140008C5140008C5140008C5140008DC
:1000A000C5140008C5140008C5140008C5140008CC
:1000B000C5140008C5140008C5140008C5140008BC
:1000C000C5140008C5140008C5140008C5140008AC
:1000D000C5140008C5140008C5140008C51400089C
:1000E000C5140008C5140008C5140008C51400088C
:1000F000C5140008C5140008C5140008C51400087C
:10010000C5140008C5140008C5140008C51400086B
:10011000C5140008C5140008C5140008C51400085B
:10012000C5140008C5140008C5140008C51400084B
:10013000C5140008C5140008C5140008C51400083B
:10014000C5140008C5140008C5140008C51400082B
:10015000C5140008C5140008C5140008C51400081B
:10016000C5140008C5140008C5140008C51400080B
:10017000C5140008C5140008C514000800000000DC
:10018000C5140008C5140008C5140008C5140008EB
:10019000C5140008C5140008C5140008C5140008DB
:0C01A000C5140008C5140008C5140008B0
:1001AC0010B5054C237833B9044B13B10448AFF3A5
:1001BC0000800123237010BD4004002000000000CB
:1001CC00C8140008084B10B51BB108480849AFF318
:1001DC0000800848036803B910BD074B002BFBD007
:1001EC00BDE81040184700BF00000000C81400080C
:1001FC0044040020400400200000000080B586B0BC
:10020C0000AF0123BB604FF400637B600023FB60F5
:10021C0002233B613B1D0348194600F0C1FC183713
:10022C00BD4680BD0008024080B586B000AF1123EA
:10023C00BB604FF480737B600123FB6002233B6146
:10024C003B1D0348194600F0ABFC1837BD4680BD7A
:10025C000008024080B586B000AF0123BB604FF4AC
:10026C0080537B600123FB6002233B613B1D0348F1
:10027C00194600F095FC1837BD4680BD00080240B9
:10028C0080B586B000AF0023BB604FF480537B6019
:10029C000123FB6002233B613B1D0348194600F020
:1002AC007FFC1837BD4680BD0008024080B584B085
:1002BC0000AF1C4A1B4B1B6B43F001031363194B20
:1002CC001B6B03F00103FB60FB68164A154B1B6BA1
:1002DC0043F002031363134B1B6B03F00203BB606D
:1002EC00BB68104A0F4B1B6B43F0040313630D4B9D
:1002FC001B6B03F004037B607B680A4A094B1B6B86
:10030C0043F040031363074B1B6B03F040033B604C
:10031C003B68FFF773FFFFF787FFFFF79BFF103773
:10032C00BD4680BD0038024080B487B000AFF86095
:10033C00B9607A603B6000237B61FA68BB681A4441
:10034C007B681A443B6813447B617B6903F00103AF
:10035C00002B01D0012300E0002318461C37BD46BA
:10036C005DF8047B704700BF80B485B000AF786047
:10037C000023BB600023FB600DE07B6803F00103EE
:10038C00002B02D0BB680133BB607B685B087B60D1
:10039C00FB680133FB60FB681F2BEEDDBB6803F0D1
:1003AC000103002B01D0012300E000231846143771
:1003BC00BD465DF8047B704780B485B000AFF86033
:1003CC00B9607A607B6803F004039A10BB681A600A
:1003DC007B6803F00803DA10FB681A601437BD461B
:1003EC005DF8047B704700BF80B588B000AFF86043
:1003FC00B9607A600023FB6100237B6100233B61C1
:10040C000023BB6107F1100207F1140310461946D3
:10041C00FA68FFF7D1FF3A697B6910461946BA684A
:10042C007B68FFF781FFB861FB6943F00103FB6157
:10043C00BB685B00FA691343FB617B689B00FA693C
:10044C001343FB617B69DB00FA691343FB613B6976
:10045C001B01FA691343FB61BB695B01FA69134326
:10046C00FB61FB6943F08003FB61FB691846203795
:10047C00BD4680BD80B483B000AF78607B68012B33
:10048C0001D101230AE07B68022B01D1022305E094
:10049C007B68042B01D1032300E0042318460C379E
:1004AC00BD465DF8047B704790B587B002AF002362
:1004BC00BB6000237B6000233B600023FB6007F1E3
:1004CC0008023C1D3B46009304200021234600F00B
:1004DC00F5F83B6803F08003002B03D0FB6843F076
:1004EC000803FB603B6803F02003002B03D0FB6880
:1004FC0043F00403FB603B6803F01003002B03D0B4
:10050C00FB6843F00203FB603B6803F00203002B23
:10051C0003D0FB6843F01003FB60FB6818461437EC
:10052C00BD4690BD80B584B000AF78600023BB6041
:10053C000023FB607B68022B03D0032B0AD0012B1A
:10054C0014E007F10803002000211A46012300F0F3
:10055C0085F80BE0FFF7A8FFF86007F1080300200F
:10056C0000211A46FB6800F079F800BF1037BD4631
:10057C0080BD00BF80B582B000AF06484FF48051FB
:10058C0000F0BCFD0346FB71FB7918460837BD46ED
:10059C0080BD00BF0008024080B584B000AF786019
:1005AC00042000217A68FFF71FFFF860F86800F05C
:1005BC00A5F91037BD4680BD80B582B000AF0020D4
:1005CC0000210122FFF710FF7860786800F096F99F
:1005DC000837BD4680BD00BF80B582B000AF00209B
:1005EC0000210022FFF700FF7860786800F086F9A0
:1005FC000837BD4680BD00BF80B582B000AF082073
:10060C0000210022FFF7F0FE7860786800F076F9A0
:10061C000837BD4680BD00BF80B584B000AF7860A0
:10062C000023FB60FFF7D8FF00F022FEFFF728FE47
:10063C0007F10C03184600F085F900F025FEFFF7D2
:10064C0009FE786800F072F9012000F0CFF808205C
:10065C0000F0F2FD1037BD4680BD00BF80B586B0FE
:10066C0000AFF860B9607A603B6000237B610023C7
:10067C003B61F868B9680022FFF7B6FE786138680C
:10068C00FFF772FE3861786900F038F900F0F0FD80
:10069C00FFF7F6FD786800F055F900F0F5FDFFF76F
:1006AC00D9FD386800F042F9012000F09FF80820CD
:1006BC0000F0C2FD1837BD4680BD00BF80B586B0C6
:1006CC0000AFF860B9607A603B6000237B61F8682A
:1006DC00B9680122FFF788FE7861786900F00EF99D
:1006EC0000F0C6FDFFF7CCFD786800F02BF9386AF6
:1006FC0000F034F900F0C8F802463B681A6000F0CC
:10070C00C3FDFFF7A7FD082000F096FD1837BD4686
:10071C0080BD00BF90B58BB002AF786000237B61C9
:10072C0000233B614FF0A043FB610023FB600023DF
:10073C00BB6107F11403042000211A46FB69FFF783
:10074C008DFF07F1140207F1100407F10C0300935D
:10075C00042000212346FFF7B1FFFFF7A5FEB86187
:10076C00BB69002B07D007F11403002000211A46A7
:10077C00BB69FFF773FF07F1140207F1100407F1CF
:10078C000C030093042000212346FFF797FF243726
:10079C00BD4690BD80B58EB000AF00237B630023B7
:1007AC003B630023FB624FF0A043BB6200237B62E0
:1007BC00F0233B620023FB610023BB6100237B61C0
:1007CC0000233B61064BFB60064BBB60064B7B601A
:1007DC00FFF76CFD00F070FDF020FFF79BFFFEE7CC
:1007EC0002000022F0ED00E003005FA080B582B0B3
:1007FC0000AF78607B68002B06D00E484FF4805118
:10080C00012200F093FC05E00A484FF480510022CD
:10081C0000F08CFC07484FF40061002200F086FCCD
:10082C0004484FF40061012200F080FC0837BD46FB
:10083C0080BD00BF0008024080B584B000AF786076
:10084C0039600023FB600023BB600023FB6013E0D6
:10085C000122FB6802FA03F31A467B681340BB6063
:10086C00BA68FB6822FA03F3BB60BB681846FFF753
:10087C00BDFFFB680133FB60FA683B689A42E7DB1B
:10088C001037BD4680BD00BF80B582B000AF0023DD
:10089C007B600A484FF40061012200F047FC0748D6
:1008AC004FF40061002200F041FCFFF763FE78601A
:1008BC007B6818460837BD4680BD00BF0008024063
:1008CC0080B584B000AF786039600023FB600EE027
:1008DC00FFF7DAFFB8607B681B68B968FA6801FA41
:1008EC0002F21A437B681A60FB680133FB60FA68FA
:1008FC003B689A42ECDB1037BD4680BD80B582B0B8
:10090C0000AF78607B6818460821FFF795FF083721
:10091C00BD4680BD80B582B000AF78607B6818465C
:10092C001021FFF789FF0837BD4680BD80B582B026
:10093C0000AF786078682021FFF77EFF0837BD464E
:10094C0080BD00BF80B582B000AF786078680321AD
:10095C00FFF7B6FF0837BD4680BD00BF80B582B03B
:10096C0000AF786078682021FFF7AAFF0837BD46F2
:10097C0080BD00BF80B400AF124A124B1B6843F01D
:10098C00010313600F4B00229A600E4A0D4B1B683B
:10099C0023F0847323F4803313600A4B0A4A5A60A1
:1009AC00084A084B1B6823F480231360054B002274
:1009BC00DA60064B4FF000629A60BD465DF8047B2E
:1009CC00704700BF003802401030002400ED00E0FA
:1009DC0080B487B000AF00233B6100237B6102230E
:1009EC00FB600023BB6002237B60324B9B6803F0EF
:1009FC000C033B613B69042B07D0082B09D0002B5F
:100A0C003FD12D4B2D4A1A603FE02B4B2C4A1A60DC
:100A1C003BE0284B5B6803F480039B0DBB60254BCC
:100A2C005B6803F03F037B60BB68002B0DD0244A4E
:100A3C007B68B2FBF3F21F4B596847F6C0730B404F
:100A4C009B0903FB02F37B610CE01C4A7B68B2FB45
:100A5C00F3F2184B596847F6C0730B409B0903FB24
:100A6C0002F37B61134B5B6803F440331B0C0133C3
:100A7C005B00FB607A69FB68B2FBF3F30E4A136010
:100A8C0003E00D4B0D4A1A6000BF0A4B9B6803F044
:100A9C00F0031B090B4AD35CDBB23B61064B1A68B3
:100AAC003B6922FA03F3044A13601C37BD465DF818
:100ABC00047B704700380240000000200024F40042
:100ACC0000127A000400002080B584B000AF78607A
:100ADC000023FB607B68312B01DC32237B600A48EE
:100AEC004FF48051012200F021FB0023FB6004E055
:100AFC0000F090FBFB680133FB60FA687B689A425C
:100B0C00F6DB1037BD4680BD0008024080B500AF53
:100B1C000C484FF48071002200F008FB4FF4FA707F
:100B2C000121012200F010F806484FF480710122D7
:100B3C0000F0FCFA40F6C4100121012200F004F888
:100B4C0080BD00BF0008024080B487B000AFF860E1
:100B5C00B9607A6000237B6100233B617B68002BCA
:100B6C0001D101237B6000237B6110E002E03B6933
:100B7C0001333B613C227B6892FBF3F3FA6802FB86
:100B8C0003F23B699A42F2D17B6901337B617A694A
:100B9C00BB689A42EADB1C37BD465DF8047B7047A4
:100BAC0080B489B000AF7860396000237B6100238A
:100BBC003B610023BB610023FB6171E1FB690122F6
:100BCC0002FA03F37B613B681A687B6913403B6153
:100BDC003A697B699A4240F060813B685B68022B02
:100BEC0003D03B685B68122B22D1FB69DA087B6867
:100BFC00083253F82230BB61FB6903F007039B00FA
:100C0C001A460F239340DB43BA691340BB613B6820
:100C1C001B69FA6902F0070292009340BA69134308
:100C2C00BB61FB69DA087B680832B96943F82210AA
:100C3C007B681B68BB61FB695B001A46032393400E
:100C4C00DB43BA691340BB613B685B6803F0030389
:100C5C00FA6952009340BA691343BB617B68BA6965
:100C6C001A603B685B68012B0BD03B685B68022BFE
:100C7C0007D03B685B68112B03D03B685B68122B79
:100C8C002FD17B689B68BB61FB695B001A46032311
:100C9C009340DB43BA691340BB613B68DB68FA697C
:100CAC0052009340BA691343BB617B68BA699A607E
:100CBC007B685B68BB61FB69012202FA03F3DB43CF
:100CCC00BA691340BB613B685B6803F010031A09F7
:100CDC00FB6902FA03F3BA691343BB617B68BA6917
:100CEC005A607B68DB68BB61FB695B001A460323B7
:100CFC009340DB43BA691340BB613B689B68FA695C
:100D0C0052009340BA691343BB617B68BA69DA60DD
:100D1C003B685B6803F08053002B00F0BE80654A93
:100D2C00644B5B6C43F480435364624B5B6C03F425
:100D3C008043FB60FB68604AFB699B08023352F8F6
:100D4C002330BB61FB6903F003039B001A460F239E
:100D5C009340DB43BA691340BB617B68574A9342AB
:100D6C0037D07B68564A934231D07B68554A9342C0
:100D7C002BD07B68544A934225D07B68534A9342CC
:100D8C001FD07B68524A934219D07B68514A9342D8
:100D9C0013D07B68504A93420DD07B684F4A9342E4
:100DAC0007D07B684E4A934201D1092312E00A23F3
:100DBC0010E008230EE007230CE006230AE00523CD
:100DCC0008E0042306E0032304E0022302E00123ED
:100DDC0000E00023FA6902F0030292009340BA6922
:100DEC001343BB613449FB699B080233BA6941F870
:100DFC0023203C4B1B68BB613B69DB43BA69134046
:100E0C00BB613B685B6803F48033002B03D0BA6989
:100E1C003B691343BB61334ABB691360314B5B685D
:100E2C00BB613B69DB43BA691340BB613B685B68E0
:100E3C0003F40033002B03D0BA693B691343BB6145
:100E4C00284ABB695360274B9B68BB613B69DB43FA
:100E5C00BA691340BB613B685B6803F48013002BD9
:100E6C0003D0BA693B691343BB611E4ABB699360EB
:100E7C001C4BDB68BB613B69DB43BA691340BB614C
:100E8C003B685B6803F40013002B03D0BA693B6921
:100E9C001343BB61134ABB69D360FB690133FB612C
:100EAC00FB690F2B7FF68AAE2437BD465DF8047BB9
:100EBC00704700BF0038024000380140000002407B
:100ECC000004024000080240000C024000100240E6
:100EDC000014024000180240001C02400020024096
:100EEC0000240240003C014080B487B000AF786021
:100EFC00396000233B610023FB600023BB600023AF
:100F0C007B61DAE07B69012202FA03F33B613A6808
:100F1C003B691340FB60FA683B699A4240F0CA8017
:100F2C007B681A687B695B00194603238B40DB43A3
:100F3C001A407B681A607B69DA087B69D9087B6880
:100F4C00083153F821107B6903F007039B00184606
:100F5C000F238340DB4319407B68083243F822108F
:100F6C007B689A687B695B00194603238B40DB43E3
:100F7C001A407B689A607B685A687B69012101FA88
:100F8C0003F3DB431A407B685A607B68DA687B6941
:100F9C005B00194603238B40DB431A407B68DA6005
:100FAC004A4A7B699B08023352F82330BB607B6949
:100FBC0003F003039B001A460F239340BA681340B7
:100FCC00BB607B68424A934237D07B68414A93426C
:100FDC0031D07B68404A93422BD07B683F4A934286
:100FEC0025D07B683E4A93421FD07B683D4A934292
:100FFC0019D07B683C4A934213D07B683B4A93429E
:10100C000DD07B683A4A934207D07B68394A9342A9
:10101C0001D1092312E00A2310E008230EE0072374
:10102C000CE006230AE0052308E0042306E0032372
:10103C0004E0022302E0012300E000237A6902F0BD
:10104C000302920003FA02F2BB689A4232D17B6926
:10105C0003F003039B001A460F239340BB601B480D
:10106C007B699B0819497A699208023251F822105F
:10107C00BA68D2430A40023340F823201E491E4B63
:10108C001A68FB68DB4313400B601B491A4B5A6808
:10109C00FB68DB4313404B601749174B9A68FB689E
:1010AC00DB4313408B601449134BDA68FB68DB435A
:1010BC001340CB607B6901337B617B690F2B7FF61F
:1010CC0021AF1C37BD465DF8047B704700380140EA
:1010DC00000002400004024000080240000C0240E4
:1010EC00001002400014024000180240001C024094
:1010FC000020024000240240003C014080B485B036
:10110C0000AF78600B467B807B681A697B88134044
:10111C00002B02D00123FB7301E00023FB73FB7B4C
:10112C0018461437BD465DF8047B704780B483B015
:10113C0000AF78600B467B8013467B707B78002B6E
:10114C0003D07A887B689A6103E07B881A047B68F9
:10115C009A610C37BD465DF8047B704780B483B050
:10116C0000AF78600B467B807B685A697B885A405D
:10117C007B685A610C37BD465DF8047B704700BF35
:10118C0080B485B000AF78600B467B804FF4803321
:10119C00FB607A88FB681343FB60FA687B68DA6152
:1011AC007A887B68DA61FA687B68DA617B68DB696C
:1011BC00FB607B68DB6903F48033002B01D00023D8
:1011CC0000E0012318461437BD465DF8047B7047D8
:1011DC0080B582B000AF0346FB80084B5A69FB8890
:1011EC001340002B06D0054AFB885361FB88184638
:1011FC0000F006F80837BD4680BD00BF003C01403A
:10120C0080B483B000AF0346FB800C37BD465DF85D
:10121C00047B704780B500AF06484FF40061002294
:10122C00FFF784FF03484FF400610122FFF77EFFB4
:10123C0080BD00BF0008024080B584B000AF78606C
:10124C000A484FF480510022FFF770FF0023FB6027
:10125C0004E0FFF7DFFFFB680133FB60FA687B6893
:10126C009A42F6DB1037BD4680BD00BF0008024035
:10127C0080B500AF03484FF400610022FFF756FF22
:10128C0080BD00BF0008024080B500AF09484FF494
:10129C0000610122FFF74AFF06484FF4006100226B
:1012AC00FFF744FF03484FF400610122FFF73EFFB4
:1012BC0080BD00BF0008024080B584B000AF0023A1
:1012CC00BB600023FB6000237B6000F01DF8FFF780
:1012DC0073F9FFF7CDFFFEF7D3FF07F108031846AC
:1012EC00FFF730FB3B1D1846FFF738FBFFF7CCFA36
:1012FC00F860FFF7C9FFFEF7ADFF0820FFF79CFF72
:10130C001037BD4680BD00BF80B500AF3720FFF75A
:10131C00DBFB4EF29E70FFF7FDFA3720FFF7D4FB94
:10132C000320FFF789FF80BD70B50F4E0F4D761B64
:10133C00B61018BF002405D0013455F8043B98476B
:10134C00A642F9D10A4E0B4D761B00F0B7F8B61039
:10135C0018BF002406D0013455F8043B9847A64228
:10136C00F9D170BD70BD00BFE8140008E814000886
:10137C00F0140008E8140008024B13B1024800F006
:10138C0005B8704700000000A513000801460020B6
:10139C000246034600F016B838B5084B084DED1A56
:1013AC00AC1018BFED1805D0013C55F8043D98471A
:1013BC00002CF9D1BDE8384000F086B8F0140008D4
:1013CC00F41400082DE9F047254C2568D5F8484160
:1013DC000646884692469946CCB360681F2818DCAE
:1013EC00431C7EB104EB80050121C5F888A0D4F81C
:1013FC00887101FA00F21743022EC4F88871C5F8FF
:10140C0008911ED00230636044F820800020BDE8B3
:10141C00F087144B03B34FF4C870AFF3008004464D
:10142C00D0B1D5F84831002780E88800C5F848418C
:10143C0038460123C4F88871C4F88C71002EE1D0B1
:10144C00D0E7D4F88C110A43C4F88C21DAE705F5FF
:10145C00A674C5F84841C0E74FF0FF30BDE8F087EF
:10146C00E414000800000000DFF834D0002103E091
:10147C000C4B5B58435004310B480C4B42189A42AE
:10148C00F6D30B4A02E0002342F8043B094B9A4284
:10149C00F9D3FFF76FFAFFF747FFFFF77BF97047B8
:1014AC00FFFF0220F414000800000020400400207C
:1014BC00400400205C040020FEE70000F8B500BFEB
:1014CC00F8BC08BC9E467047F8B500BFF8BC08BC19
:0414DC009E46704771
:0814E000430000001800002089
:0814E80085130008D101000882
:0414F000AD01000842
:1014F4000024F400000000000000000001020304C6
:101504000607080900000000000000000403002092
:101514006C030020D4030020000000000000000041
:1015240000000000000000000000000000000000B7
:10153400000000000000000000000000E0140008AB
:101544000000000000000000000000000000000097
:101554000000000000000000000000000000000087
:101564000000000000000000000000000000000077
:101574000000000000000000000000000000000067
:101584000000000000000000000000000000000057
:101594000000000000000000000000000000000047
:1015A4000000000000000000000000000000000037
:1015B40001000000000000000E33CDAB34126DE6D4
:1015C400ECDE05000B00000000000000000000003D
:1015D4000000000000000000000000000000000007
:1015E40000000000000000000000000000000000F7
:1015F40000000000000000000000000000000000E7
:1016040000000000000000000000000000000000D6
:040000050800147566
:00000001FF
